:020000022000DC
:10700000305E032001710200319003009B200400D8
:107010003190030031900300319003000000000024
:10702000000000000000000000000000319003009C
:107030003190030000000000319003003190030004
:10704000157C030031900300319003003190030060
:1070500031900300319003009997030031900300B1
:107060003190030031900300319003003190030010
:107070003190030031900300319003003190030000
:1070800031900300719803003190030031900300A8
:107090003190030031900300F9B1030031900300F7
:1070A00031900300319003003190030031900300D0
:1070B0003190030031900300000000000000000048
:1070C00031900300319003003190030031900300B0
:1070D000319003003190030031900300357B0300B1
:1070E0003190030031900300319003000000000054
:1070F0000000000031900300000000003190030008
:1071000011F097FF0E480F490022814201D004C0C0
:10711000FBE70D480D490E4A814202D008CA08C05B
:10712000FAE70C484FF47001026842EA010202607B
:10713000BFF34F8FBFF36F8F10F0EEFC00DE000047
:1071400074000220D09D0220000002207400022062
:107150004866040088ED00E00146806840B10138CF
:107160008860D1E9000290421EBF821C0A6070470D
:10717000002070470020704701207047016999B1D5
:10718000B0B502AFD0E9022401390161551C856018
:107190004569D0E900312C440134C460184606F03A
:1071A000D1FB01460120B0BD00207047F0B503AF10
:1071B0002DE9000FE1B0D0F800B0884603907F4D74
:1071C0009BF808000B91CDF820B090B1032813D1A3
:1071D000594611F8140F049108390291DFE810F0B4
:1071E00006007D00C70BD600280019000298006831
:1071F0008FE01AF034F984E05D4615F8140FDFE8EB
:1072000010F09C006900B60BA9000500D8F80040FA
:107210006FE05E4616F8360FDFE810F005006200FA
:10722000A90B1F000D00DBE906A0DBF8202022E1FE
:10723000D8F80040B9E05C4614F8680FDFE810F0B9
:1072400008005600970B1F05270033004E031F054B
:10725000DBF850A0CDE9094698E1DA461AF84A0F62
:10726000DFE810F005004100850B0A008F06CDE92C
:1072700009A6DBF838A031E10A965E4616F8810FC0
:10728000E0B1032800F092874D4811F052FECDE99D
:1072900009465E4616F89C0FB0B1032800F06F82D5
:1072A000484811F046FE9BF879100BF16C0071B163
:1072B000032900F0EC82444811F03BFE9BF8830068
:1072C000DBE91D4900F05FBFDBE924494DE2DBF853
:1072D0007410D9E23D4811F02CFE3D4811F029FE12
:1072E0003C4811F026FE3C4811F023FE3B4811F0CB
:1072F00020FE1AF01AF810B9DBF8100021E0042083
:10730000D0E35A46002142F80C0F029202F8081FFF
:107310000492CBF8100090F8C01059B301205D46DC
:1073200005F8140F00202B22287055F8100C45F892
:10733000080C681C1AA91AF015F9DBF80C00CBF838
:10734000100090F8C01071B100217C308BF8201033
:10735000CBF8180019F05BFEC0B2052800F0A1833D
:1073600019F004FEC5E70120144D8BF81400DBF87A
:107370000400C6E700218BF82C108BF8201000F1D8
:10738000C4017C30CBF82410CBF8180019F03FFE74
:10739000C0B2052807D19BF82C0028B303282ED0B3
:1073A0000F4811F0C6FD19F0E1FD19F0BEFF0028ED
:1073B00000F02787042000F0ECBC00BF0070024002
:1073C000AC3D0400BC3D04006C3D0400EC25040011
:1073D0003C260400FC2504002C2604006C26040036
:1073E0007C3D04009C9C02200020CBF82850C5F86E
:1073F00000024FF40001DBF82800C0F804135FF826
:107400001C0019F081FDD5F85C01002800F0A08374
:10741000DBF8280000215E46C0F85C11DBF828206C
:10742000D2F88004D2F88434D2F88844C0B2D2F8BA
:107430008C54DBB22D0664F3174545EA0323184448
:10744000D2F89034D2F89444D2F89854D2F89C24CC
:1074500006F8361FD9B2E3B2120656F826AC41EA56
:107460000321EBB246F81EAC42EA034246F81A0C7E
:107470000A4446F8162C030C594621F82C3FC0F359
:107480004114C0F3C0130A960C7200F01F04042CC0
:1074900041E902024B7228BF0424000ACC718871B2
:1074A000100C002B88804A8056D01AA818C9021DDB
:1074B00018C20988118011A938C80A4638C2008844
:1074C00010800BF13C00CBF838A01CC91CC0098807
:1074D00001800020594601F84A0F09910BF1400044
:1074E000CBF83CA00CA90CC80CC1008808809AF805
:1074F000BE00DAE900CE0690F346BAF8C400079061
:10750000E1469DF838109DF83700BDF83420022977
:10751000059200F0A380002940F0AF80002800F021
:107520002482012800F0F881022840F0A6809DF80E
:107530003600002840F019859DF9321001F00F0047
:10754000002900F1A383E84A40F244410828C0F032
:10755000A383E64A00F0B8BD0DF168080A2208F1DD
:107560000A0019F0FFFF0CA898E87C0001467CC1D6
:107570000BF15401CBF850A090E87C0000207CC1B6
:10758000594601F8680F0991DDF82C800BF1540081
:107590000BF15E010A22CBF840A019F0E3FFBBF823
:1075A00058000025CBF84400BAF8C410CBF84810B6
:1075B000CBF84C50DAF80440844210D2CC4811F099
:1075C000C9FDDBF8440011F091FD19F021FF11F025
:1075D00091FEDBF84000C430CBE91B054CE3DAF840
:1075E00000102246C34B01F0F2FB0246DBF84830A4
:1075F000C1480DF168090C46009009F108001146D8
:1076000022460AF03DFA11A899E87C0001467CC1A7
:107610000BF1700190E87C0001207CC18BF88400A4
:107620000020DBE91C4900210BF17806CBF86C1037
:1076300020B930460FF0E0FA044689465CB10020DC
:107640009BF884508BF88400DBF86C00012873D120
:10765000DBF8700078E0DBF84CA0D1E068B9DAF82C
:10766000746056B19AF878009DF83610814204BFD4
:10767000BDF83200072800F01882DAF86C000AF131
:107680002C050DF1680A0DF13008C600002E00F03F
:107690006C84D5E900104246C46A50466346CDF872
:1076A00000E0A0471A9820B9083E0835CC46DE46CF
:1076B000ECE7DDE91BC6BCF1000F00F05684059A2B
:1076C0004FF00009079B00251046934238BF18462B
:1076D0000699002918BF1046122B28BF10460246F3
:1076E000864238BF3246DDF82C80DDF820B0B0424B
:1076F00009D9002B00F0D384B2FBF3F000FB132078
:10770000B0FA80F045097D48614600901AAC2046E9
:107710000AF0C6F901200BF14C0181E821020BF1BE
:10772000580194E82C002CC16F4DDDF824A08BF893
:107730007000002000F0F3BC30460FF05DFA01222B
:10774000CBF87410CBE91B2000215E4606F89C1F85
:10775000B0FA80F04009B07056F85C0C7570C43017
:1077600046E9034946F8040C5F4D0020CBE9224965
:10777000C5F828010120E8646148C5F80403D8F879
:1077800000405FF8A00319F0BFFBD5F8280130B125
:10779000DBE922231AA8002102F01EF80BE0D5F83D
:1077A000000120B9D5F85C01002800F0EA8240F21F
:1077B0000110ADF86800DDE91A1001223270CAB27A
:1077C000022A00F0E082CA070ED0090A41EA0064EA
:1077D0004C4811F0BFFC04F001000AF0AFF911F0C1
:1077E00089FDDDE909464EE2DBE9121202EB000AEF
:1077F000CBF84CA0814203D8DBF84400824566D127
:10780000DBF84090D9F804108A4500F243840BF16C
:107810005400D9F80080CBE90E8A11A90CC80CC11C
:10782000008808809DF84C00E0B3D9F86C0009F19D
:107830002C060DF14409C400002C00F01582F6E876
:107840000201424653468D6A4946A847C1B2083CE8
:107850000229F1D0DDF82C80C00740F00782DBF868
:107860004000DDE9094600F1C40190F8C3208AB365
:1078700090F8BE0000228BF878000BF16C008BF8BA
:107880007920CBF87410184D0022C0E900120AF0DC
:10789000CBFC012000218BF87900DBF8400080F858
:1078A000C310F0E19DF84B00002800F0D7800128BC
:1078B00071D00228B9D19DF84A00BDF844100128C2
:1078C00000F0F680032840F0CF810120F1E0DBF8E2
:1078D0006C00A6E6044D0020CBE91B100BF16C00F8
:1078E0000AF0A2FCCFE100BF00700240D43B0400CC
:1078F000510000004C2604005C2604001C260400F5
:107900000104800052000000DC240400EC24040088
:10791000FC2404006C250400DAF82810BDF83200BD
:10792000814240F222839DF836100A2900F014812A
:1079300000297FF4A2AE5FF8303002206146724623
:10794000022601F044FA00220223ADF868205FF815
:10795000442000921AAA19F0B9F9CC46BBF1010FE4
:107960003FF6ADAE5FF85820B5E19DF8360000282F
:1079700000F0C180062800F0AC80082840F0F582B5
:10798000BEF1000F00F097839AF8BF000438B0FAF8
:1079900080F04009E8E09DF846A04FF00008D9F8D3
:1079A0002810514509EB4A0088BF00F1180840F241
:1079B0005B819DF84A000B2840F05681BDF8446079
:1079C00098F80110F0B2814240F2B180D9E9020189
:1079D0000025002488F80060CDE916011AA816A930
:1079E00012F0A2FA1A98012840F0A5801C9991B3D0
:1079F00019F047FA20D0042811D00528EED118A894
:107A000012F056FAC00726D1E0B25045E6D198F8F8
:107A10000020E8B2101A19F0ECFA5446DEE718A874
:107A200012F046FAC00716D118A80C4612F040FA18
:107A3000C00710D10D46D1E718A812F05FFA000474
:107A400009D118A812F034FAC00704D118A812F00E
:107A50002FFAC007C2D05FF844017FE19DF84A00C9
:107A6000411E082900F20081BDF84400DFE811F052
:107A70000900FC009D00FC008000FC00FC00FC00F4
:107A8000AC00012840F0F080002019F0A5FA002D8C
:107A90003FF4E5AEF4E802010A6A00219047083D90
:107AA000F5E703202870042076E1DAF870C006E6D6
:107AB0000020002940F0D8809DF846100A0700F009
:107AC0000E8101F0870160F30821D948C0F818152C
:107AD00007E1BDF83060300A012800F01B8202285F
:107AE00000F0EB81032800F0EC810F2840F03D828C
:107AF000DAE904C6E3E5D24B0220614672469AF801
:107B0000C14002269AF8C25001F061F9CD4A64F3EF
:107B10004105ADF86850022300921AAA19F0D6F870
:107B2000CC46BBF1010F3FF6CAADC74AD3E0C74808
:107B300011F01CFB98E019F052FB002D3FF48FAEC2
:107B4000F4E8020132464B6A51469847083DF4E793
:107B500003208BF82C001CE1BEF1000F00F0AE8278
:107B60000AF1180111F810008CF800000126A6E5B2
:107B7000411E7F2978D289F8BE00032089F8BF0012
:107B800009F12C04D9F86C000121DDF82C80C50026
:107B900089F8C310002D3FF462AEF4E8020299F8B0
:107BA000BE1052699047083DF4E701285CD10120DE
:107BB00019F012FA002D3FF452AEF4E802010A6AFD
:107BC00001219047083DF5E7002800F08D8001284D
:107BD0004AD10420D9F8288089F8BF0009F1180695
:107BE000D9E902014FF0000ACDE9160118AC0025D1
:107BF0001AA816A912F098F91A98012840F0B58031
:107C00001C9979B319F03DF91FD0042811D005282B
:107C1000EED119F027FAC00724D1E8B2804540F22E
:107C2000458216F810005FFA8AF2801A19F0E1F91D
:107C3000DEE719F017FAC00714D120460D4612F0FE
:107C400037F9C0070ED18A46D2E7204612F056F91E
:107C5000000407D119F006FAC00703D119F002FA9F
:107C6000C007C5D07A4879E0DDF82C80DBF84010F9
:107C70000020C431CBE91B106D4DDDE909460BF145
:107C80006C000AF0E1FA01202070B9E2684A4FF472
:107C90008461082880F0168211446E4B72460226D9
:107CA00051F820400220614601F091F84FF0FF3278
:107CB000022312FA84F2B2FA82F25209ADF8682075
:107CC000654A00921AAA19F001F8CC46BBF1010FDF
:107CD0003FF6F5AC614A0220594610F08DF954493F
:107CE0004865DDF82C80BAE599F8BF00DDF82C80F6
:107CF00002283FF4B4AD03200DF1680A89F8BF00F3
:107D0000D9E90201CDE9160116AD18AC5046294655
:107D100012F00AF91A98012840F008811C99E1B183
:107D200019F0AFF80CD004280FD00528EED119F0C7
:107D300099F9C00711D10846002109F0ADFFE5E728
:107D4000204612F0DBF8000407D119F08BF9C007C8
:107D500003D119F087F9C007D8D0414800901AAA7A
:107D600040482B21404B10F03FFF19F038FA002D0E
:107D70003FF475ADF4E802018A6901219047083D9E
:107D8000F5E7032030700999042008700A990870FB
:107D90000520049908700320039D21468BF80800F4
:107DA000686809F00FFAA868214606F0FDFFEE6842
:107DB000307CDFE810F00600DC05DC050B00CB03AF
:107DC000EF03D6E90040C6E902402BE2354615F83C
:107DD000640FDFE810F006007B01CC055200500074
:107DE0000900D6E9050423E2B146099519F8F40F14
:107DF00000285BD0032840F06D81B2461AF8F00FDE
:107E0000002800F08C80032840F06C81B3461BF8FA
:107E1000EC0F002800F09980032840F0A28531463D
:107E200011F8B10F0A910FF20C01D1E810F000BF68
:107E3000007002401F009D05A0054503620300BFBE
:107E40009C240400AC240400BC2404005300000063
:107E50004C2504001C2504002C2504003C250400AE
:107E60005C25040040530400703B0400D6E928421E
:107E7000D6F8AC80D5E2099592E2B14619F8E40F44
:107E8000B8B1032840F02A81B2461AF8E00F002862
:107E900048D00328099540F02981B3461BF8DC0F30
:107EA000002855D0032800F02282B7E1D6E91A0451
:107EB00087E2D6E91A41306FCCE1DAE902C6FFF772
:107EC000FEBBF3B2032B62D80AF1080080217C22AA
:107ED000DFE803F002484346BEF1000F00F00D81D9
:107EE0000420BEF1010F8CF8000000F0098103208E
:107EF000BEF1020F8CF8010040F206810920BEF1AC
:107F0000030F8CF8020000F0058104268CF8036052
:107F1000FFF7D5BB0AF1AC0C1226FFF7D0BBD6E9B0
:107F20001C0454E2D6E91D41F06F9BE1D9F86C00C6
:107F300009F12C04C500002D3FF491ACF4E80201D6
:107F40008A6900219047083DF5E7D6E91E8446E29C
:107F5000D6E92041D6F888008DE18821842201E00D
:107F600090218C224158805828BBDDF820B0002099
:107F7000DDF82C80DDE909A6DBF83C10C431CBE943
:107F800013100BF14C000AF05FF9E94D35E1DAF816
:107F90006C000AF12C05BDF832A0C400002CE4D01E
:107FA000F5E8020152460B6B31469847083C002821
:107FB000F4D0DE46CC46BEF1010F40F29B80032296
:107FC00002264FF0000A01448CF801200191BAF119
:107FD000000F03D0002580465B4634E001998842BB
:107FE00054D080465B4618F9011BCDB2B1F1FF3F7A
:107FF00026DC427805F01F01E02D02F03F0212D38B
:108000008478F02D04F03F0444EA821210D3C4783F
:1080100001F0070100F1040804F03F0444EA821271
:1080200042EA814508E042EA811500F1020807E0D2
:1080300042EA013500F103080020B0EB154F1BD1D7
:108040001FFA85FA0025B41C9C422CD2DFF87C0B69
:10805000214600903046624617F0DCF8DFF8702BBE
:108060000223ADF868A000921AAA18F02FFECC46A1
:108070004046AA462646AAE705F57F00372161F368
:108080009F254FF4584141EA902ADCE78CF80060C4
:10809000FFF715BBDFF80C2B50460FF0ADFFDFF8F4
:1080A000380B10F033FFDFF8200BB3E0DFF8F02AD5
:1080B00041460FF0F6FDDFF8F82A01E0DFF8EC2A80
:1080C00019F089F8DFF8E02A19F023F8DFF8280B17
:1080D00010F02FFFDFF8100B10F02BFFDFF8140B60
:1080E00010F027FFDFF8FC0A10F023FFDFF8000B89
:1080F00010F01FFFDFF8CC0A8CE0DFF8C42ADFE7BE
:10810000DFF8B82A19F060F8DFF8A82A0220022167
:108110000FF0C7FDDFF8A02A032019F089F800212D
:108120000BF14C06CBF8641020B9304600F038FE55
:1081300004468946002C5FD000209BF870508BF8D5
:108140007000DBF86400012802D1DBF8680007E06A
:10815000304600F025FE0122CBF86C10CBE9192047
:1081600000215E4606F8811FB0FA80F0400956F8FB
:10817000451C7570C431B07046F80D4C46F8099C2A
:1081800046F8051C6A4D8BF880000020C5F82801D0
:1081900021469BF880004A468000C0B2C5F8000224
:1081A000002001F067FB6348C5F80403D8F80040DD
:1081B000D4E9001089688847DFF8E00918F0A4FEC8
:1081C000D5F8280138B10BF1640901208BF8810042
:1081D00099E81102A3E7D5F8000110B9D5F85C01C0
:1081E00098B101203070DFF8EC0910F0B3FF0120E6
:1081F00009F0A4FC11F07EF80A9E01208AF8000024
:108200003070DBF81000FFF786B8032030708AF872
:108210000000BBE510F0AAFF10F0B6FFDFF8CC09B4
:1082200010F087FE0021354605F8641F45E9140467
:10823000C6E9070406F12400402119F044FCB146C8
:10824000202049F8684F0022A9F12401C9E9011052
:1082500009F87C2F0022B2460AF8E02F4AE91B41B8
:108260004AF8640C0022B3460BF8DC2F09954BE961
:1082700017414BF8540C1F28C6E92341C6F8940057
:1082800040F21882A088C6F8980020680068BFF302
:108290005F8FC6E92700D6E92423DFF8641900912F
:1082A000202116F0B7FF0246DFF85809D6F89830BB
:1082B0000C4600901AAD11462246284609F0E0FB14
:1082C00095E80E0006F1A4000EC006F1A4000EF021
:1082D00093FC002844D00022C6F8B81086F8D820B5
:1082E000D6F88C20D8F800400432C6E92C2006F1DC
:1082F000B00111A8224600F0F3FD9DF844000228C9
:1083000000F0C880C00717D0D6F88C1018F0C2FE55
:1083100086F8E41086F8E01086F8DC10022111EAF5
:10832000400080F00204DFF8E00800F01D8122E147
:1083300000700240010480001299D6F8A000D6F81F
:1083400098200844C6F8A000914202D3202840F0AB
:108350009680D6F88C0000210068BFF35F8F016023
:10836000D6E92701002996D001248BF800408AF82D
:10837000004089F8004010B1DFF88C08F4E0F069A3
:108380000022016886F8742006F124023167C6E9EC
:108390001A0206F175001AA940F21B1219F0E2F850
:1083A00006F16800414605F063FD00286ED100200B
:1083B000B14609F8F40FA9F1D00459F8D40C49E9F1
:1083C00023040021B2460AF8F01F4AE920040021E4
:1083D000B3460BF8EC1F00F10C084BE91D8406F1C5
:1083E00080052021284619F012FC1AA829462246A9
:1083F0000FF084FB1A98072821D11B9A2846DFF832
:108400000C38002109F01AFB04460A4630460021C8
:1084100000F8B11F0A9040F8058C40F8114C40F864
:108420000D2C212AC6F8A88080F07582B8F800309B
:10843000202A0DD1DDF82C80002020220FE0DDF86D
:108440002C80012002248BF800008AF8000086E0CE
:10845000DDF82C80002B00F0038218F009FE86F86E
:10846000B000DFF8B407214600901AAD284609F0A5
:1084700017FB95E80E0006F1B4000EC00CE0D6F82C
:108480008C100968BFF35F8F08601EE70420DDF8D9
:108490002C8041E0032038E006F1B40009F0BEFF73
:1084A000B8B1D8F80040002286F8E820D6F8A82015
:1084B000C6E93020C6F8C81006F1C000214600F019
:1084C00091FCC0B20228E7D0032829D103200A9AE0
:1084D00019E096F8B010022011B3D8F8004000203F
:1084E0000121D6F8A82086F8DC00C6E92D21C6F8BF
:1084F000BC0006F1B400214600F074FC0A9AC0B238
:1085000003280ED104201070052003218BF80010E1
:108510008AF8001089F8001009990870032040E0DB
:108520000A9A0121022811708BF800108AF80010B5
:1085300011D186F86410212086F8F41018F0E7FBBA
:1085400086F82040D8F80040C6E9060118F0A2FEDF
:1085500018B3042025E00224C00718BF002401201E
:1085600089F80000DFF8B40610F0F4FD204609F0A9
:10857000D1FA10F0BFFE0120002186F864004FF40C
:108580008040002411F08CFA86F82040C6E90601EC
:10859000D8F8004018F07EFE10B9D6E9024041E656
:1085A000052030740398D0F810A09AF80800DFE88E
:1085B00010F005005400DE0165011E00DAF8040029
:1085C0000178002900F05081CAF814000AF130083F
:1085D000DAF80000002152468AF8191002F8391F13
:1085E0000AF11001CAF834000A92099111E05146CB
:1085F00011F8390FA1F109080A9129390991DFE829
:1086000010F00600B601B60117000B00D900DAF829
:108610003400C8F800002BE09AF8440000219AF8D2
:108620004550C0078AF844101BD0DAF8406044E097
:10863000544614F8A80F40B1032815D1D3461BF8AF
:10864000A40F30B1032866D0E8E50AF13C0207CA5E
:108650001BE00AF1480207CA1EE0DFF8CC0510F063
:1086600068FCDFF8BC05D5E5DFF8B80510F061FC63
:108670000023514601F8383F01220C46C1E902129D
:1086800004F8703F0B4643F8040F0023D3460BF861
:10869000A43FABF15C0307C30AF1540307C34AB11B
:1086A0008188CAF8601000680068BFF35F8FCAE96C
:1086B000190091E0DFF84405ACE511F08FFC81462C
:1086C00030680B9AD0B94FF0FF3029463060301D2A
:1086D00012F046FE044630680D46013030604846D0
:1086E00011F0A0FCE00713D001208AF845508AF869
:1086F00044000B98D0F80090042065E0DFF83405C2
:1087000010F028FD12F01AFE10F0F4FD10F03CFD00
:10871000D8F80000ACE70B980AF17801D0F8009087
:1087200011A84A4600F0DCFB9DF84400022828D03E
:10873000C0070BD0DAF8541018F0ACFC8AF8A81077
:108740008AF8A410022121EA40011FE01299DAF808
:108750006800DAF860200844CAF86800914201D342
:10876000012807D1DAF8540000210068BFF35F8FB9
:1087700001605BE0DAF854100968BFF35F8F0860AE
:1087800044E003208BF8000020701DE0DFF89C041B
:108790008AF83C1010F0DEFC9AF83C0009F0BAF9B7
:1087A00010F0A8FD4FF4004018F0B1FACAE910012A
:1087B0008AF848400B98D0F800900AF1400018F071
:1087C0004EFC0028A4D005200A9908704946099853
:1087D00006F0BCF904205AE0DAE91623DFF8201489
:1087E0000091012116F016FD0246DFF81804DAF8B0
:1087F00060300D4600901AAE11462A46304609F008
:108800003FF996E80E000AF16C000EC00AF16C0008
:108810000EF0F2F950B10022CAF880108AF8A020B8
:10882000DAF854200432CAE91E2074E7DAE91901A3
:108830000029D1D0012100288BF800102170A5D18A
:108840009AF83850DFF8E81328028AF83C500130D3
:1088500001F12006CAE9106000208AF844002CE7E4
:10886000DFF8B00310F052FBCB4847F6FF7111F070
:1088700017F9CAE9040100208AF81800D8F8009016
:108880000AF1100018F0EBFB0028EDD00320039C48
:1088900049468AF80800606900F0B0FBA669307E9E
:1088A000DFE800F0046565123B1A3D0096E807001A
:1088B00006F10C03002407C34FF4803018F0D5FBF9
:1088C000C6E9080186F8284006F1200018F0C7FB29
:1088D00000284DD003205AE1B04618F8900F002828
:1088E0002CD0032837D1B2461AF88C0F00282FD08D
:1088F000032836D1B3461BF8510FDFE810F005000E
:108900003500380005011D01D6E91042092AF56C31
:10891000B564C0F0C280BE487CE4F1692BE0B0468B
:1089200018F8390FDFE800F0031A236F0D00D6E9BD
:108930000702D6F82CA096F83A303BE0D6E90A5167
:1089400086E018F09DFCC4B2072C61D10420C4E07D
:10895000D6E90C5182E0B94810F0EBFAB64810F0B5
:10896000E8FA9F4810F0E5FA9C4810F0E2FAFEDEC3
:10897000F0680168F1611AA84A4600F0B9F99DF85B
:108980006810022900F0AD80DDF86900C907DDF844
:108990006D209DF871304DD00021B04608F8391F88
:1089A00058F825AC48F81D0C48F8192C88F8013007
:1089B00048F80DAC31464FF0000B41F8240F0C463F
:1089C0004A6044F80CBF01F10D02C1F810B081F803
:1089D00014B023701AA818F06DF81A98072822D13D
:1089E0001B980021984B451C20462A4609F003F8A5
:1089F000964B204600212A4608F0FDFF86F894B0E9
:108A0000C6E90FA0716418F03BFCC4B2072C63D018
:108A1000062C0BD08E4810F09DFB204609F07AF80A
:108A200010F068FC02E0874810F0A0FB012088F8F5
:108A300000009DE70024B04608F8904F06F11C01A5
:108A400058F8805C48E91D0208F86C3C48E91A5166
:108A50000020B2460AF88C0F4AE91751002034462C
:108A600044F8380F139060600820CDE911401AA82F
:108A700011AA09F01AFA1A98072828D1139A092A74
:108A800031D20020B3460BF8510F4BF8114C4BF884
:108A90000D2C4BF8095C4BF8055C2B88082A02D199
:108AA0000020082204E0002B3FF4DAAE18F0E0FAD0
:108AB00086F850005848214600901AAD284608F024
:108AC000EFFF95E80E0006F154000EC010E0012003
:108AD00002248AF8000045E0032088F80000062000
:108AE00055E0042053E0494B1046082118F0B2FB32
:108AF00006F1540009F092FC90B10022B16686F8AC
:108B00008820B26CC6E9182006F16000494600F0E2
:108B100069F9C0B20228EBD0032815D103202EE05A
:108B200096F85010022079B100200121B26C86F82D
:108B30007C00C6E91521F06506F15400494600F0B5
:108B400051F9C0B2032819D001210224C2078BF8C1
:108B500000108AF8001018BF0024022802D188F8FB
:108B6000001005E7012088F80000354810F0F2FAFF
:108B7000204608F0CFFF10F0BDFBF9E604208BF88B
:108B8000000003208AF8000088F8000005203076F5
:108B900061B018F098B900BF0080FFFF9C9C0220D4
:108BA0007C2504007C260400E43B04000C25040022
:108BB000CC240400AC250400BC2504009C25040042
:108BC0008C250400AC000000AD000000CC250400A2
:108BD000DC250400500000000C260400FC260400E4
:108BE000CC2604000C270400383F04008C26040027
:108BF0002C270400283F040018340400A6000000BD
:108C00009C260400AC26040018010000BC260400C9
:108C1000A5000000DC260400EC260400170100007B
:108C2000A0000000A83C04008434040003010000FC
:108C3000109D0220E40000002C3B0400B83C04001E
:108C4000FB000000FD000000FC3A04000C3B0400A7
:108C5000FC000000F0B503AF2DE9000B8946044687
:108C600011F0BCF980462068B0BB4FF0FF302060A7
:108C700094F87C00012804D118F08BF994F87C104A
:108C800000E00021D4E91D02904201D1C90715D0AE
:108C9000421C04F11401B2F1200300EB400018BFA4
:108CA00013460022636784F87C200A5A08448078BF
:108CB00042EA0046350AF0B2022805D1D9E900128D
:108CC000201D10F043FE022618F08EF8F0B240EAA4
:108CD0000520BDE8000BF0BD044810F03BFA12F08F
:108CE0002DFB10F007FB10F04FFA00BFE40000006E
:108CF000F0B503AF2DE9000B15460C46814611F087
:108D00006DF98046206800283FD14FF0FF30206089
:108D100094F85C01012804D118F03BF994F85C1137
:108D200000E00021D4E95502904201D1C90711D0D9
:108D3000421C04F11401B2F1200300EB800018BFC3
:108D40001346C4F8543111F81060002284F85C21F5
:108D5000022E06D1D5E90012201D10F0F7FD0226E3
:108D600007E001EB400109F101000131092218F08F
:108D7000F9FB206889F80060013020604046BDE8BA
:108D8000000BBDE8F04011F04DB9044810F0E2F9D5
:108D900012F0D4FA10F0AEFA10F0F6F9E400000088
:108DA000B0B502AF0546044655F80C0F30B1284661
:108DB00009F034FB00B1B0BD00202860216800201C
:108DC00021B1D4E9012160601046B0BDB0BDDCB571
:108DD00004AF14460A46014600930020234616F0CD
:108DE00019FADCBDF0B503AF4DF8048D064690F8D6
:108DF0002800884650B103285BD1354615F8240F6A
:108E0000A0B103285DD1346A206818E096E8070015
:108E1000C6E90312817811F07F0171614CD0002105
:108E2000354605F8241F45F80C0C00E0B069807841
:108E3000344610F07F0044F81C0F38D0346208F03C
:108E400003FFD8E9001210F0AAFD2148012341696F
:108E5000BFF35F8F226802F01F0293401D4A126821
:108E60001A4004D0194002D1032403201AE0BAB1F9
:108E7000F1690122BFF35F8F01F01F0102FA01F1D6
:108E8000C94318F0D9FAFCD1BFF35F8F0124D6E9AA
:108E90000312706986F8244000F0ECFC022002E026
:108EA000012401202C7086F8284018F06CB90A487B
:108EB00003E0064810F03DF8084810F057F910F0AC
:108EC00063F9014810F035F858230400F821040034
:108ED0009C9C0220107502409B0000009E00000038
:108EE000F0B503AF2DE9C00B804691F828009146FC
:108EF0000D4650B1032869D12E4616F8240FA0B1B3
:108F000003286BD12C6A206818E095E80700C5E9B2
:108F10000312817811F07F0169615AD000212E4639
:108F200006F8241F46F80C0C00E0A86980782C464F
:108F300010F07F0044F81C0F46D02C6208F094FE1D
:108F4000D9E9001210F02BFD2848294B4169BFF3E5
:108F50005F8F22681B6802F01F02D340DB071ED020
:108F600082F01002D140C90725D0E9690122BFF380
:108F70005F8F01F01F0181F0100102FA01F1C94376
:108F800018F05AFAFCD1BFF35F8F0120D5E9032313
:108F9000696985F82400684600F01EFC05E00120A0
:108FA000307040F20110ADF80000DDE90001C8E9C1
:108FB0000001012004E003200221307088F8001035
:108FC00085F8280018F035BA0A4803E006480FF083
:108FD000B0FF094810F0CAF810F0D6F801480FF0B9
:108FE000A8FF00BF58230400082204009C9C022014
:108FF000147502409B0000009D000000F0B503AF17
:109000002DE9000FADB08346007A0591CDF818B078
:10901000DFE810F00600230023000D009C0153023E
:1090200018F01DFADFF8C80410F0A0F816E0D946D1
:1090300019F8180FA9F10808DFE800F0030B0F4634
:109040000600D8F8000012E0CDE90189DBE92660CE
:109050006AE0DFF898040FF06CFFFEDEDBF8040036
:10906000D84648F8100F0021C14609F8081FCBF870
:1090700014000168C9070ED018F081F8B0F500405F
:1090800071F10000C0F01381DBF814000021C0E989
:109090000011DBF8140066300021012205290CD0F4
:1090A000435CE44C202B03F01F0328BF04F54074FD
:1090B000013102FA03F32360F0E7012017F027FEE5
:1090C000CBE908018BF8284018F016F90028CDE903
:1090D000018940F0FC80DFF81C0410F047F8DBF851
:1090E0001410002026900BF11C06613108AA002301
:1090F0000024052B0FD0CD18052C80F0EA8004EB5E
:109100004404013342F8345002EBC4042075269C19
:1091100001342694EDE708A930467C2218F025FD9D
:10912000DBF89400CBE9266000EB40000022C00091
:109130004FF0000AB046079004960798504573D048
:1091400006EB0A05287DC0B1032840F0D380A9466C
:1091500019F8100FA9F10C01C8B1032840F0CD8017
:10916000AB461BF80D0FABF10506002854D00328C1
:1091700040F0C6802C7B039128E056F80A00A946EF
:1091800049F8040FCDF80C9009F80C2F05E008F110
:1091900004000390086808F110092E4646F8080FED
:1091A00006F1050B72600178CF4B202901F01F01F9
:1091B00003F59F6238BF03F5FC7252F82130022498
:1091C00064F3114342F8213004782C73302C80F082
:1091D0008C800599CE48D1E9001200EBC40010F054
:1091E000DEFBC149202C01F59F6038BF01F5FC7002
:1091F00004F01F0150F8210010F4403F21D003205B
:1092000008F118088BF800000AF1180A89F8000024
:1092100000222875049E90E708F10802306808F1E2
:109220000D0B03911646BEE70420DDF818B0DDF8FB
:10923000089089F8000003208BF808002DB017F083
:1092400042BE05F10C0010F0ABF9012430468BF85A
:10925000004008F06AF8039889F8004008F06CF8BC
:10926000DDF818B000212C75DDF80480DBF814005F
:109270009D4D663005290CD0425C4FF44173202A85
:1092800002F01F0238BF0423013104FA02F2EA504F
:10929000F0E710F073F9DBF8142000230124C2E991
:1092A00002010BF11C00C2E9004308F092F9012011
:1092B0008BF81800404608F0E6F9DBF804000BF1E3
:1092C0000C03002200F16B01663007C31BE0032092
:1092D000AFE7002027958DF8B00027A808F026F901
:1092E00085481721854A0FF0CDFC884A2046302159
:1092F0000EF0D7FC84480FF01CFE82480FF019FED8
:109300007F480FF016FE884200F0D080411CCBF859
:109310000C10DBF81410CBF818100131CBF8141036
:10932000CBF81C0000787049202800F01F0028BFEF
:1093300001F54071012202FA00F0002408600120CA
:1093400017F093FECBE908018BF8284017F0D4FF03
:10935000002840F0BC80DBF804004FF000086130CA
:109360000790B8F1050F00F08F8007985E4910F85C
:1093700008904FF44270B9F1200F38BF0820DBF895
:109380001840DBF8045051F800A0052C80F0A180B3
:1093900010F0F4F87D23A0FB030201FB0321000B76
:1093A00040EA015128690A1A10042CD009F01F0064
:1093B000012304EB840403FA00F010EA0A0605EB2B
:1093C00044002C44444400EB4800838A94F848400D
:1093D00018BF0126A6420ED0DDF818B00A2B2BD2FA
:1093E0004FF6FF7192B2594091424FF0FF3188BF62
:1093F000591C818207E091B25A1E8B4238BF00226D
:10940000DDF818B08282DBF81800052864D217F066
:10941000CCFF90F8480048B110F0B0F8DBF8042019
:10942000012313600023C2E90130D16008F1010873
:1094300097E700BF08050050296100218182DBF811
:10944000180005284CD217F0B0FF90F8481081F0B2
:10945000010180F84810DBF81800052842D2DBF83B
:10946000042000EB80011144414491F8481041EA86
:10947000082141EA004000F0A7FDC0B20228C2D096
:1094800027480FF073FEBEE7DBF81C004FF4417174
:109490000078202800F01F0038BF0421012202FAC2
:1094A00000F0114A5050DBE903012CE7042017F0CB
:1094B0002EFCCBE904018BF8184005990BF1100044
:1094C00010F00EFB00283FF4C9AD0520B4E60420DF
:1094D000B2E6104A204600E0124A05210EF0E1FBF8
:1094E0000D4AFAE70D4AF8E708050050F822040093
:1094F00035000000360000000F2104008421040024
:10950000FC2304000C2404001C2404005048040024
:10951000B8000220082304001823040028230400B4
:109520000401000038230400F0B503AF2DE9000763
:109530008046D3E9000A99460E461446504511D09C
:1095400000F11E0522463346C9F80050C6E9000561
:10955000D8E9000100F004F901280A462846ECD0B9
:10956000002000E001202146BDE80007F0BDD4D472
:10957000F0B503AF2DE9000FADF5137DD0E902B3CF
:109580000DF1380AD0E90082029303690793436919
:109590008469CDE9050352A8043001900991D1E90D
:1095A0000010CDE903B80A9002F1200008900A9853
:1095B0000E46814273D0099806F10A05414B0560B9
:1095C000D8F800000138C8F80000DBF8001008984F
:1095D0008A1C08F033FA01296CD9018850460C9690
:1095E00016F0F6FBA5F10A0051460A220D9517F078
:1095F000B9FFDBF8000006990230CBF800000798AD
:109600000E68006806FB00F5002D57D0002E4ED0E6
:10961000DDF808900B94B9F8000004EB00082A4824
:109620000FF098FDB9F8000010F056FFB8FBF5FBFD
:109630000BFB1584254DB4FBF6F84046A84708FB04
:1096400016494846A8475846A8470FF053FE8DF8DC
:109650004B8151468DF84A918DF849B101980CC95A
:109660000CC00988018007208DF8480111A852A973
:1096700011F0D8FE9DF8440009281CBF14480FF0D3
:1096800075FD0598DDF810800B9CDDF80CB00134F9
:109690008461D8F80000DDE90C61002887D10A98C0
:1096A000301A18BF01200DF5137D17F0BDBC094815
:1096B0000FF0F9F8094A02200EF09EFC06480FF060
:1096C000F2F800BFF83304004D000000ED900300F5
:1096D0001B0100009C5D04008C5D0400903B0400B5
:1096E000F0B503AF2DE90007D2E9004A91460D46D7
:1096F0008046264654450BD006F11E0440462946B6
:10970000C9F80040C5E90064FFF732FF0028F0D037
:10971000B6EB0A0018BF0120BDE80007F0BDF0B5A8
:1097200003AF2DE9000B0646D2E9000990460C462E
:1097300048450DD000F11E053146C8F80050C6E975
:109740000005204607F094FD20B928460C46EFE7B7
:10975000002000E001202146BDE8000BF0BDD4D47C
:10976000F0B503AF2DE90007DFF84C909A46144698
:109770000E468046DAE90001884218D000F10A015D
:10978000CAF8001016F0A2FA3168054640464B466A
:109790008A1C08F069F92A4608F0FAF93068013C99
:1097A00002303060601CE5D10024002000E0012080
:1097B0002146BDE80007F0BD0834040001682029F7
:1097C0003CBF0430704780B56F46024A08461F21EF
:1097D0000EF012FC48230400F0B503AF4DF804BDB1
:1097E00088B007293BD8214E06F58F6454F82150E4
:1097F0009D4202D9012101802EE006F5DB63009332
:109800001B4BB446019303F17806079603F16406F7
:10981000069603F15006059603F13C06049603F103
:109820002806143302936B46039653F821301A60CE
:109830000CF584725D60002342F8213001234CF85E
:10984000213052F82130DB07FBD0002342F82130D1
:1098500044F821304560037008B017F05ABB024A43
:10986000084617F056FC00BF682304002870024029
:1098700014770240F0B503AF4DF804BD98B0412A0B
:109880003CD21546044632B1B1F1005F05D3481908
:10989000B0F1405F01D20E4603E06E462A4617F053
:1098A000A7FD1C48109000F18C01179100F1780180
:1098B000169100F16401159100F15001149100F12D
:1098C0003C01139100F128011430072C12911190E2
:1098D00019D810A81149002250F8240006604560EC
:1098E00001F5827040F82420012241F8242050F82C
:1098F00024100029FBD018B017F00BBB04480FF060
:1099000035FC0FF041FC044A204617F002FC00BF72
:109910009C0000000076024078230400047002409E
:10992000F0B503AF2DE9800F8146407A0D46DFE8A0
:1099300010F0050036013F0147002B0099F8081090
:10994000D9F80400C9F80000DFE801F003BF56654C
:109950005100022180F8B7100021D9F8000080F8EA
:10996000B810D9F8000080F8B910D9F8000080F8D4
:10997000B61017F0C0F9002D00F0B580F4E8020130
:1099800009698847083DF6E799F81000002840F07B
:1099900009818C480021C0F80015012089F81000C9
:1099A000D9F8000080F8B71017F0A5F9002D00F0E5
:1099B000E280F4E80201CA6800219047083DF5E71B
:1099C000C84618F8180FDFE800F003F0F34D060062
:1099D000D9F80C0026E04E4616F8240F002800F0B7
:1099E000A380032800F0A48073480FF0A2FA00219E
:1099F0007430C9E90301CCE7002180F8B81017F0F2
:109A00007AF9002D00F0B780F4E80201CA6900215C
:109A10009047083DF5E70021C84608F8181F743044
:109A200048F80C0C67490322C9E9040149F2753171
:109A300065480160C0F814210160026802B9016044
:109A4000C022426101600121D9F81400C0F800155C
:109A50004FF48001D9F81400C0F80413D9F81400A9
:109A6000C9F81C005948D5E9001230300FF097FFB3
:109A7000D9F81C00D0F80004000501D4032082E0CE
:109A8000D9F814004FF40061C0F800144E48016882
:109A900011B949F275310160002149F27532416115
:109AA0004E4602600260C0F81411026080224848ED
:109AB0000260D9F81400474AC0F8042306F8241FAE
:109AC00056F8140C46F8080C30E0012180F8B81064
:109AD00017F011F9002D4ED0F4E80201CA690121F6
:109AE0009047083DF6E7D9F800004FF00008002540
:109AF00000F1100B016A0BEB410AD3453BD08BF808
:109B00000080D9F8000000F12404406EC6003EB188
:109B1000F4E8020100224B6A29469847083EF6E71E
:109B200001350BF1020BE8E7D9F81C00C9F8200059
:109B30002648D5E9001228300FF031FFD9F820006F
:109B400000684178D1B1D9F81410012089F82400B7
:109B5000C1F8040589F818000221D9F8000080F83E
:109B6000B71017F0C8F835B1F4E80201CA6801214E
:109B70009047083DF7E70020012108E0007858B140
:109B800003203070042088F800000120032189F8A8
:109B90000910BDE8080FF0BD01203070DAE7084871
:109BA0000FF0C7F903480FF0C4F904480FF0C1F9EA
:109BB000FEDE00BF243C040084220400143C0400A8
:109BC0008C2404000070024000EC06409C9C0220A3
:109BD00004E100E0010040010020704700207047D0
:109BE0007047D4D4F0B503AF2DE9000F89B080469B
:109BF00091F88500D3E900B99A4615460E4601282A
:109C00001AD10021D6F8EC008DF821104FF44071E4
:109C1000CDF81D100B218DF81C0007AA3046062335
:109C200010F07EF8D6E905100538884280F0DF8014
:109C300031690A5C01320A54D6F8EC40082C80F0F5
:109C4000B98006F1DC00002120F81410D6F8EC10E1
:109C50000131C6F8EC10A14240F2B68000EB44009E
:109C60004178013141703068002800F0B18070689F
:109C70007169CDF810B0884280F0AF803169B26967
:109C8000CDF80C800B5C8DF81C4001330B54111D7A
:109C900001200723C6E902010020ADF821004FF49E
:109CA0004030CDF81D0007AA3046042110F038F8E6
:109CB00022204FEA192B8DF8200021215748072335
:109CC000079030468DF82190CDF804908DF822B0A1
:109CD00007AA10F025F806F194009AF81290CDF832
:109CE00008A0BAF810800FF083FC002878D1032078
:109CF000D7F808A007F8260C41F08000A7F12A0148
:109D000007F8280C304607F8279C27F82A8C10F013
:109D100047F8BAF1000F16D006F196000FF068FC74
:109D2000002867D14FF0030A8DF81F908DF820A00E
:109D30003046ADF81C808DF81E1007A910F030F8E1
:109D4000DDF81C8001E04FF0040A06F1500206F134
:109D5000480307CA10F01CF92220019AE8764FF454
:109D60008070A5F819003348C5F815000298049BC7
:109D7000D0E902012A77C5E900322F4A2C7505F196
:109D80002004C5E9024030462961294685F81DB006
:109D900000F062F8039957F82A0C086037F8260C8F
:109DA00081F80AA0C1F80680CC60888009B0BDE8BF
:109DB000000FF0BD15480FF0CDF908200FF096F90F
:109DC0000FF098FA0FF0E0F9114A20460DF069FF04
:109DD00010480FF0CBF90FF0D7F90F4A0DF061FFE3
:109DE0000F48A7F11D02009018210E4808E0064A0E
:109DF0000DF057FF0D48A7F11D02009019210C48E6
:109E0000094B0EF0F1FE00BFD4270400A3000000B0
:109E1000E4270400A80000006C4A040010010001BF
:109E20000C280400F4270400603B040038280400D8
:109E30001C280400092110013C2704007047002160
:109E40000160704700207047002070470220704773
:109E50007047704770477047D0F8D830082B3FBF25
:109E600000EBC303C3E92612D0F8D81001313CBF80
:109E7000C0F8D810704780B56F4605480FF06AF9F2
:109E800008200FF033F90FF035FA0FF07DF900BF1D
:109E9000A2000000D0B502AF86B0044624300122F3
:109EA000D0E84F3F53B9C0E8432F002BF8D12046EC
:109EB000242217F02AF9204606B0D0BD16F0BBFFC9
:109EC00003490091034916F031FF68460DF07FFF0A
:109ED00084280400EC280400D0B502AF86B0044604
:109EE00000F580700122D0E84F3F5BB9C0E8432FF6
:109EF000002BF8D120464FF4807217F006F9204667
:109F000006B0D0BD16F097FF03490091034916F043
:109F10000DFF68460DF05BFF84280400EC28040068
:109F2000FEB506AF0121D0E84F2F42B9C0E8421F6D
:109F3000002AF8D10130BFF35F8F06B080BD16F064
:109F40007AFF04490091044916F0F0FE68460DF0CE
:109F50003EFF00BF84280400EC280400D0B502AF07
:109F600086B0044680300122D0E84F3F53B9C0E8A4
:109F7000432F002BF8D12046802217F0C6F8204648
:109F800006B0D0BD16F057FF03490091034916F003
:109F9000CDFE68460DF01BFF84280400EC28040069
:109FA000B0B502AF17F053F90446D5E90021A8680F
:109FB0000223012A2B6004BF496888472046BDE878
:109FC000B04010F02FB8D4D4F0B503AF4DF804BDB5
:109FD00017F03DF90F4E0446306888B94FF0FF3056
:109FE00029463060301D002200F018F8054617F0B1
:109FF00068F8204610F016F828465DF804BBF0BD5E
:10A0000005480FF0A7F811F099F90FF073F90FF068
:10A01000BBF800BF88930220E4000000B0B502AF97
:10A020000C4690F8781041B1E1B2C4F30F25022933
:10A0300017D0CAB117F05FF816E0416F220C01EBA0
:10A04000410101448A740C82D0E91C120132B2F140
:10A05000200318BF13469942436702D1012180F8BB
:10A0600078100FF093FC0224E0B240EA0520B0BD66
:10A0700080B56F4609037D2241EA105100037C3010
:10A08000002317F067FEBDE880400FF009BDD4D46F
:10A0900000F01F020123C0B203FA02F2074B29B1FC
:10A0A000202828BF03F540731A6070474FF44171B0
:10A0B000202838BF04215A50704700BF08050050BF
:10A0C000F0B503AF2DE9000F99B0824691F88C00EE
:10A0D0008946D0B1032840F07581CB461BF8890F23
:10A0E000ABF16501079150B3032840F06E814D46F6
:10A0F00015F8600FA5F13408002800F0108103283E
:10A1000040F06681D9F85C4030E109F1140E039209
:10A11000CDF818A04B469EE80454C9E91B2A09F162
:10A120007402C9E919CE93E8730073C2002049464E
:10A1300001F8890FA1F165000591079006E0CDE9CE
:10A1400005BAD9E919CED9F870A0039201204C467E
:10A1500004F8880F44E919CEA4F1100C14F8145C2B
:10A160009CE8091054F8046C34F8121C14F813BC61
:10A17000DFE805F0032C202310000D960AA981E8E2
:10A18000091001210120049000268DF839104FF0AC
:10A19000000B2CE007250722CDF8230000200492B5
:10A1A0008DF839508DF82730ADF821100C90CDE99D
:10A1B0000AC61BE0022302220AE00AA9002649C1BE
:10A1C0000620062104908DF8391010E003230322A5
:10A1D0008DF821B04FF0000B04928DF839300990C2
:10A1E000ADF82210CDF830B0CDF828B001264FF0F0
:10A1F00000088DF83AB08DF8388018218DF820606D
:10A200000FAD17F00CF8049800218DF83C00681C85
:10A210000122CDE90088012510F084FB08A8002E5A
:10A2200018BF461C9AF80A008DF851009AF80B00E6
:10A2300010968DF85200DAF8040011909AF80C008C
:10A240008DF85000BAF80200012898BF2846BAF8E5
:10A250000010002908BF0846ADF848009AF8090028
:10A26000012888BF05469AF80800002808BF05465F
:10A270008DF84A500021CDE900B80FA8173004220C
:10A2800010F050FBDDE90A0110F034FD06460D46E2
:10A29000DDE90C0110F02EFDDFF848B11790ADF8A4
:10A2A0006010ADF858505846159615A90FAA72DFE0
:10A2B00010F0D6F9C00702D04B480E460BE09AF9D1
:10A2C0000D2001209BF8001077DF10F0C9F9C007BE
:10A2D00018D00E464548DDF818A0DDF814B00EF091
:10A2E00039FF16F03CFF0FF005F8204607F0A8F9FB
:10A2F0000225079801248BF8004007F076F9CAE997
:10A30000005650E09BF80000012173DF10F0A8F91F
:10A31000DDF818A0C00706D035480E46DDE7D9E9BC
:10A320000B0103920EE03348C846079A00216830BB
:10A3300048F82C0FDDF814B04546C8F8042005F89D
:10A34000341F11464E4646F8341F002106F1100214
:10A350003446706244F8041F314641F8182F264AEB
:10A36000C6E9076400F06AFA039AB462204611460F
:10A3700007F07CFE10B1032028700EE009F15800B0
:10A38000D9E9115607F0E0F909F1380007F052FA5F
:10A390000120042D89F860000AD1032404208BF8E1
:10A3A0000040CAF8000089F88C4019B016F08BBD47
:10A3B000404607F080F900208DF8200008A807F03B
:10A3C0003FF996E706480EF0B4FD04480EF0B1FDE3
:10A3D00001480EF0AEFD00BFA02B04006C29040064
:10A3E0007C29040070000220690000006A0000005F
:10A3F0006B0000009C9C0220D82B0400F0B503AF3A
:10A400002DE9000F9FB08B4691F8D0100390D1B189
:10A41000032940F09A815C4614F8B81FA4F15C0847
:10A42000002979D0032940F096815E4616F8B01FC6
:10A43000A6F1500A002900F0A180032940F08E8186
:10A44000DBF8AC50BBE0DBF80C000BF1BC0100907A
:10A450000BF1C60002920A22DBE90464CBF8186013
:10A4600017F080F89BF8C8004FF001099BF8CB303B
:10A470000025BBF8CCA0BBF8C680E188BBF8CEC0F5
:10A48000BBF800E0BBF80820019200225FEAC97423
:10A4900009D001244FF0000904FA02F21A4218BF51
:10A4A00015430122F2E700239BF8CA208BF82720EE
:10A4B00000280246ABF824C0ABF822A08BF820009D
:10A4C000ABF81E80CBF8583018BF0122002DABF836
:10A4D0001C2018BF01255FEACE72019A8BF8265026
:10A4E00018BF511E0CF101028CB295B2A54207D9DA
:10A4F0004FF0000A002800F0FB800BF1280CDDE093
:10A50000D846009848F85C0F4446A8F85A10A8F8B6
:10A51000582004F85C3F06E00292BBF8B610BBF886
:10A52000B420DBF85C000078142880F011817423DB
:10A530005843904B1858C30719D0060CADF8321089
:10A54000ADF830200CA930469EDF10F089F8C00726
:10A5500018D08A4889460EF0FDFD48460FF0FEFDF2
:10A560000EF0C8FE002604254FF0000A58E0002631
:10A5700000254FF0000A4FF0000951E0DAF8000022
:10A58000029209E0304610F051FADA4600214AF80A
:10A59000600F564606F8501F00215D4645F8641FBF
:10A5A00005F14D0105F10C02C5E90F15294641F8E9
:10A5B000382F714A686400F041F9029AAD64284668
:10A5C000114607F053FD10B10320307015E0DBE9B0
:10A5D0001C650BF17C01DBF878900CA816F039FDB6
:10A5E0000BF1A80007F0B0F80BF1640007F022F9B6
:10A5F0000120022E8BF8B00005D1039A032006211A
:10A60000207011807CE017A80CA916F022FD50469E
:10A6100007F0C0F8B6FA86F04FEA154AADB246091F
:10A6200001202070404606F05EFE36B104A817A94E
:10A6300016F00FFD45EA0A4806E0032D08BFBAF5FB
:10A64000857F56D14FF00008CDE90C890CAC04F1A0
:10A65000080004A916F0FDFC0BF1280C221D0021B6
:10A6600000261691884521D014790131DBF8580075
:10A67000538815880528169162D8002C18BF9E466D
:10A68000234618BF0123002C43EA0E434CF8303018
:10A690000CEBC00018BF2646C6EA054306324360ED
:10A6A000DBF858000130CBF85800DBE7BBF81C00A2
:10A6B000C0071BD0DBF81860DBF858A09BF82020FF
:10A6C000B078BBF81E10824204BF308881421CD093
:10A6D000B07905254FF0000A82420AD1B088814244
:10A6E000039907D1BBF82400B08103E04FF0000AC2
:10A6F00005250399C1F804900120A1F802A00D805E
:10A700008BF8D0001FB016F0DEBBBBF824004FEA78
:10A71000CA0330810CF1040042F60215002BD7D099
:10A7200030F8044C012C04BF30F8024CAC4204D188
:10A730000478012C04BF44887481083B0830EDE79D
:10A740000F480EF013FD0EF01FFD08480EF0F1FB50
:10A75000074A16F09DFB04480EF0EBFB01480EF093
:10A76000E8FB00BFA02B0400BC2904008C290400D6
:10A77000784F0400CC020220C42B040070000000BB
:10A78000CA00000080B56F4602480EF0EFFC0EF0E4
:10A79000FBFC00BFBF000000F0B503AF2DE9F00BDC
:10A7A000A7F11D058046284610F018F91A4C00261E
:10A7B000284607210122CDE900664FF00109A04794
:10A7C00003200421CDE9000628460322A04728469D
:10A7D00001210122CDE90066A0472846002101227F
:10A7E000CDE90096A047EE1C304603F015F930463F
:10A7F00003F008F90435284603F00EF9284603F063
:10A8000001F917F8190C88F8040057F81D0CC8F85E
:10A810000000BDE80F0BF0BD25A9030080B56F4611
:10A8200002480EF0A3FC0EF0AFFC00BFC000000019
:10A8300000210180704700207047D4D4B0B502AF2A
:10A8400086B00D460F490968C9050BD11049144659
:10A8500014F0E6FD02685AB9C0E9005416F00CFD88
:10A8600006B0B0BD16F05EFC07490091074904E050
:10A8700016F058FC07490091074916F057FA684648
:10A880000DF0A5FA04ED00E0744C0400EC4C04005B
:10A89000A82A0400E02A0400E82A0400F0B503AF67
:10A8A0002DE9FF0B0D461168002900F01E81298853
:10A8B000112906D180681446FFF772FB0020206042
:10A8C00036E00468A8880FF08BFFC00700F0128103
:10A8D00028888846392828D1287B03281DD2226859
:10A8E000698912898A4220D1C0071ED005F110065D
:10A8F000ED89082D1FD200208C4BCDE9060006A95A
:10A9000028460822FEF763FA894A2B46009232460F
:10A9100016F0DCF9DDE9060111E082480EF01AFCC0
:10A92000287B0FF0CBFD0EF0E5FC40460FF0E4FE77
:10A9300008B016F0FBBB40F0E680306871686468D0
:10A940000022CDE9020102A901F1080005900026CC
:10A950000020052E10D08D57334605F07F06964017
:10A96000073230435E1C002DF3D4042B3144049194
:10A9700053D1E9B20F2950D940F2025606F47F4074
:10A98000861CF5B2022D0BD16F480EF0E3FB6F4829
:10A990000EF0BAFB6E4946F3072016F0B0FAC2E794
:10A9A000206804680FF01AFB81462068002840F0F8
:10A9B000B0804FF0FF30206094F83C0008B10020D8
:10A9C00017E0A16B201D04EB81014E61D4E90D124B
:10A9D0000132B2F1080318BF1346A363994204BFC2
:10A9E000012184F83C100EF0D1FF206802260225D8
:10A9F0000130206048460FF015FB022D95D04E48DF
:10AA00000EF0A8FB4D480EF07FFB4D480EF07CFB8E
:10AA1000340AE80712D0012019E001281DD060BBDC
:10AA20000320079004A8069006A807F09BF8C1B27F
:10AA3000C0F30726022923D1022036E016F014FDC8
:10AA400040480EF061FB300C0EF07BFB300E0EF038
:10AA500078FB20460EF073FB65E704A807F053FA75
:10AA600010F0010008BF01F00101C8B24FF0010170
:10AA700018BF022141EA002625E040F602667DE784
:10AA8000C00710D006A807F06DF8C1B2C0F30725C3
:10AA9000022903D1022000222E4607E0C0071CBF76
:10AAA0000798002814D102200E260022F1B2034696
:10AAB000022808BF0B464FEA012141EA024118BFB4
:10AAC000080240EA0326F0B202283FF457AF58E7E5
:10AAD000069807F018FAC00703D0022000220E469D
:10AAE000E4E701F001002A46E0E71A4828211A4A63
:10AAF0000DF0A1FA0A480EF02DFB0EF0B3FF0EF098
:10AB0000F9FB0EF041FB08480EF024FB11F064FD48
:10AB1000F5E708480EF01EFB10F010FCEFE700BF51
:10AB2000CE000000CF000000EC000000D857040069
:10AB3000E8570400E40000000A010000570100008B
:10AB4000640100005F0100000B01000056010000DD
:10AB5000A8650400442B04006C2B0400F0B503AF7F
:10AB60002DE9000F95B00C461168002900F08D8189
:10AB70002188112906D180681546FFF711FA0020B7
:10AB800028603AE1A688D0F8008030460FF028FE11
:10AB9000C00700F07F8120880D4607F8591C502817
:10ABA0002FD0512816D0522840F0238130460FF084
:10ABB00017FEC00700F01D8108460C468DF83810BE
:10ABC0000FF09CFE00283FD0CA6B0EA990479DF85D
:10ABD000384049E0A079022840F06B81A07B10F05A
:10ABE00025FAC0B2002840F06D81BE480EF0B2FADE
:10ABF000A07B0FF063FC0EF07DFB284606F022FEE2
:10AC0000FBE0207B10F012FAC0B270B1D8F80090CF
:10AC100004F112000490B4F806B0B4F810A0B9F82A
:10AC2000140058450AD1B24C2DE0C3480EF092FAF8
:10AC3000207B0FF043FC0EF05DFBDAE0B9F81E005C
:10AC4000584514D1AB4C1EE02046002110F058FAB4
:10AC5000022809D00546B94816F0E0F928463146E1
:10AC600014F0C2FA0EF046FB16F0D8FBC1E0B9F8BA
:10AC70002400584501D1A04C05E0B9F82A005845F8
:10AC800040F0BE809D4CA4480EF064FAA3480EF03C
:10AC90003BFA20780EF055FA58460FF01DFC049848
:10ACA00051460EF03DFC0EF025FB16F0ABF8B9F85E
:10ACB0000A0058451AD1BAF1000F17D0049C9848E1
:10ACC00094F800800EF046FA58460FF005FC204636
:10ACD00051460EF025FC93480EF016FA08F00100DC
:10ACE0000EF02DFA0EF006FB16F08CF8B9F83010C5
:10ACF00059450ED18F480EF02DFA58460FF0ECFB57
:10AD0000049851460EF00CFC0EF0F4FA16F07AF8A6
:10AD10006FE0B9F8340058456BD1CDE902A94FF086
:10AD2000000ADFF80492824ECDE9001B0EAD13AC91
:10AD30004FF0000BBBF1030F54D006A8049916F096
:10AD400088F90FF04BF98046D9F80000002840F050
:10AD5000A7804FF0FF30C9F8000099F89C0000B3BD
:10AD60004046C9F800A00FF05DF94FF4247016F0CA
:10AD70007CF9CDE90E016D488DF840A0CDF850A0CA
:10AD80001390284621460EF0ABFE0028F9D1DDE9EC
:10AD90001310C968884730460EF0E8F90BF1010B33
:10ADA000C8E7D9F8980006A9202209EB4010143012
:10ADB00016F0D8FBD9E9250101310A1F18BF0A4650
:10ADC000C9F89820904204BF012089F89C0009F13D
:10ADD00004000EF0DBFDD9F800000130C9F80000D6
:10ADE00016F0DFF8DDE9000B5845DDE902A93FF474
:10ADF00081AF17F8590C0FF07FFC15B016F063B84F
:10AE0000B9F8180058457FF452AFBAF1000F61D07D
:10AE1000049804783A480EF09DF9DFF8E88003269C
:10AE20000294204611F0CAFB0EF064FA002E3FF4A3
:10AE30003EAF55460396CA460FF0D0F80646D8F8FE
:10AE4000200068BB4FF0FF300299C8F8200008F1DD
:10AE50002400002210F084FA8146D8F820000C4625
:10AE60000130C8F8200030460FF0DCF8039E5FEA9E
:10AE7000C970D146AA463FF41AAF24480EF06AF9C9
:10AE800023480EF041F9013ECBE72D4828212D4AF9
:10AE90000DF0D1F811480EF05DF90EF0E3FD04E07D
:10AEA00019480EF057F910F049FA0EF023FA0EF097
:10AEB0006BF9012804D1284606F01CFD0A4805E07C
:10AEC0000A4803E0284606F0ACFA05480EF04EF9B1
:10AED0000EF05AF90F4A16F07EF900BFD4000000B8
:10AEE000D3000000D6000000D2000000D700000010
:10AEF000A4650400A5650400A6650400A765040018
:10AF000020000000109D0220E400000077000000F7
:10AF100057010000EC5A0400250000005D0100000C
:10AF2000260000000C000000DC8E0220B05204005D
:10AF3000F400000027000000D500000073000000AE
:10AF4000442B04006C2B0400F0B503AF4DF804BD96
:10AF5000144612682AB30A880025112A10D03B2A09
:10AF60000CD0382A1BD1C9880A04002918BF511CEB
:10AF7000CA0707D0090C0023022204E0012202E0E4
:10AF8000002200E00422D0E9016042EA01421B04F1
:10AF900043EA1141C6E90021FFF702F8256015F0E8
:10AFA000B8BF02482821024A0DF045F8442B04009E
:10AFB0006C2B0400F0B503AF2DE9000F9FB00C8897
:10AFC0009046056882464FF00009112C0DD0322CB6
:10AFD0004FD1C8880204002818BF501CC20707D0F0
:10AFE000000C0022012103242CE00121002429E08F
:10AFF00031F80A4F00200E90062C40D80EA88E1C67
:10B0000000F1040B04EB8400440000206CB100EB61
:10B01000800031460A220BEB400016F0A3FA0E988E
:10B020000A3C0A3601300E90F0E7DDE90E460EA824
:10B0300000F10801684616F0D5F9200C320C40EA00
:10B0400006400021C4EA0043120442EA1040A8600E
:10B0500005F10C00C5E90013694616F0C3F9DAF8EA
:10B060000800FEF79DFFC8F800901FB0BDE8000F74
:10B07000F0BD08480EF06EF816F0D3F904E004486D
:10B080000EF068F816F0C4F90EF034F90EF07CF802
:10B09000C6000000C7000000F0B503AF2DE9FE0FA9
:10B0A00016F099F90ED000201B2E36D0262E3FD058
:10B0B00029480EF04FF830460FF022FA0EF01AF938
:10B0C0000EF062F8C87B0C46D5F804A08E880FF00D
:10B0D0000FFDD4F80B20014607F82C0CA06847F8A8
:10B0E000282C47F82B0CDAF80000D4E90434D0E916
:10B0F00000BAA7F12E00C21C304627F82E6C47F884
:10B10000204C47F8243CCDE900340FF09FFBC007EA
:10B1100004D03046142176DF012009E0C8B214289B
:10B1200013D20C4A742310FB0320C0E903BA032096
:10B13000C9B2C9E90001A868FEF732FF0020C8F8CB
:10B14000000007B0BDE8000FF0BD014A15F0A0FEF9
:10B15000784F0400CC020220C4000000F0B503AF19
:10B160002DE9F00B0D88904606688146112D12D00E
:10B17000302D3CD1C8880C460104002818BF481C5B
:10B18000C1070DD0002140F00300CDF802000120DE
:10B19000CDF806101BE00020ADF80200012016E0FB
:10B1A00034F80A0F80B1A51C012807D015480DF00E
:10B1B000D1FF20880FF090F90EF09CF8696828689C
:10B1C000CDE90001002002E00120ADF8020026F8E0
:10B1D000020B69460A2216F00BF9D9F80800FEF7AF
:10B1E000DFFE0020C8F80000BDE80F0BF0BD0648E8
:10B1F0000DF0B0FF28460FF083F90EF07BF80DF04C
:10B20000C3FF00BF6E000000C5000000F0B503AF33
:10B210002DE9FF0B16F0DFF803D01B2E37D10320EA
:10B2200024E0C87B0C468E880FF062FCD4F80B201B
:10B23000014607F8280CA06847F8242C47F8270C8B
:10B24000A7F12A00D4E90434C21C304627F82A6C3E
:10B2500047F81C4C47F8203CCDE900340FF0F6FAD3
:10B26000C00704D01421304676DF052000E0082016
:10B27000C9B2002440EA0140C9E90004A868FEF709
:10B280008FFEC8F8004008B0BDE8000BF0BD0548CF
:10B290000DF060FF30460FF033F90EF02BF80DF093
:10B2A00073FF00BFC1000000F0B503AF2DE9000738
:10B2B00092B00E889146046882464FF00008112E25
:10B2C0000DD0332E51D1C8880204002818BF501C5D
:10B2D000C20707D0000C0022012103262EE0012125
:10B2E00000262BE031F80A6F00200890062E43D884
:10B2F0000DF1200C06EB46030CF1040202315B0059
:10B30000002673B106EB46060868063B42F81600B5
:10B3100002EB46008E88063186800898461C089607
:10B32000EFE70CF1080168462022DDE9086516F018
:10B3300019F9300C2A0C40EA05400021C6EA004306
:10B34000120442EA1040A06004F10C00C4E90013AA
:10B35000694615F07EFEDAF80800FEF721FEC9F80E
:10B36000008012B0BDE80007F0BD09480DF0F2FE04
:10B3700030460FF0C5F805E004480DF0EBFE30460E
:10B380000DF0B4FE0DF0B6FF0DF0FEFEC80000009B
:10B39000C9000000F0B503AF4DF804BD14460D8898
:10B3A00002680026112D0CD03A2D28D1CB881D041F
:10B3B000002B18BF6B1CDD0705D0190C00230125DD
:10B3C0000FE000250DE043681B681B78142B20D28A
:10B3D000DFF84CC07425498913FB05C30325A3F886
:10B3E0006410806845EA01451B0443EA1141C2E943
:10B3F0000051FEF7D5FD26605DF804BBF0BD09489D
:10B400000DF0A8FE28460FF07BF80DF073FF0DF04D
:10B41000BBFE024A184615F03BFD00BF784F040002
:10B42000CC020220CD000000F0B503AF2DE9000FE3
:10B4300091B00446DFF8C403CDE90304002007906F
:10B4400003A8CDE9050041F6084004EB000A9AF88C
:10B450009C0228B1032800F0B081E9480DF069FD95
:10B46000E848DAF898620DF081FEE749402081F85B
:10B470002100E64981F800030EF0B0FDE44A51795D
:10B48000012900F0A681012151710EF0CBFDE148A8
:10B49000E149E24D00680296C0F30720452810D923
:10B4A00001F108000E465A214FF05A080EF0B4F888
:10B4B000C0B23146B0FA80F0C5F850854FEA501856
:10B4C00001E04FF0000808468B4612210EF0A4F868
:10B4D000C6B20BF104001221D9460EF09DF8C0B29D
:10B4E0003EB1B0FA80F1490948EA0108022E02D1C2
:10B4F00003E04FF00108022802D1C9480DF036FEE2
:10B5000009F10C00002101220EF08AF8B8F1000FB9
:10B5100040F06481C0B2002800F0608104F1200690
:10B520000020C5F81005C5F8FC0001202860D5F8FA
:10B53000FC000028FBD04FF0A040B44D09900DF165
:10B54000240BB84801214FF0FF32A0F503700A9098
:10B550000020082807D05BF800300430C3F8241519
:10B56000C3F82025F5E7A84A40206021C5F88001EE
:10B57000117028604FF00041AB48AE4A01604FF4B3
:10B580000001AA488164AA49C1F8042301228A6003
:10B590000A6001680029FCD19B486021C1724FF408
:10B5A000003028609A4800F1220990F82000002815
:10B5B00018BF4846BFF35F8F019601D081461BE05C
:10B5C0000EF00CFD9249804691F8210068B901F116
:10B5D00030000EF007FA8E4991F82100012800F0A2
:10B5E000FF800120488481F821000120BFF35F8F94
:10B5F00081F8200015F0D5FC80200421C5F88401D5
:10B60000686020228E48874BC0F82C13C0F8301396
:10B61000C0F82813C0F8241301604FF40061C0F88B
:10B6200000110321C0F820131A60102281601A60F3
:10B630004FF0005241601A604FF0805281661A60EC
:10B640001C2241660BF103007E4915F08BFF00269A
:10B650004FF40040C4E944063720A4F892004FF4A8
:10B660008170A4F886006220A4F87E005B20A4F814
:10B6700074005A20A4F86A005920A4F860005E20E3
:10B68000A4F856005D20A4F84C005C200121A4F829
:10B6900042006120C4E94811208760206A494FF0C8
:10B6A0000208E0855F2084F82E6104F5987CA4F8F8
:10B6B0002C6184F82A6184F82861C4F8186184F840
:10B6C000066184F8FC6084F8F26084F8E86084F82D
:10B6D000DE6084F8D46084F8CA6084F8C06084F8BE
:10B6E000B66084F8AC6084F8A26084F8986084F84E
:10B6F000906084F88E8084F8848084F87C6084F87C
:10B700007A8084F8726084F8708084F8686084F8C5
:10B71000668084F85E6084F85C8084F8546084F805
:10B72000528084F84A6084F8488084F8406084F845
:10B730003E8084F8366084F8348084F82C6084F885
:10B740002A80A08484F8226084F8208091E82D006B
:10B7500050218CE82D001020142284F84C014FF465
:10B76000C020C4F8480104F24D10C4E950215946E4
:10B770001F2215F0F7FE4EF266303649AAF8900205
:10B780003248364B019DCAE9A2601C208AF8180095
:10B790002F48314ACAF80050029DC4E95E9684F8E9
:10B7A000708184F86E8184F86C818AF89262CAE9AB
:10B7B0000153CAE90321CAF8140004F5887005A9E9
:10B7C00006F052FE03208AF89C0211B0BDE8000F7B
:10B7D000F0BD23480DF0CAFC0DF0D6FC0DF048FF7B
:10B7E000012100200A91144909910D900C90042028
:10B7F00012490B9009A80CF0EAFA00BFBC470400FC
:10B80000504104001100000006E400E000E100E007
:10B810009C9C02200401001000120010080000404F
:10B820004E0000000C050050046300400415014068
:10B830000010014002000800745804007C58040005
:10B840000C070050B43F0400304104007EFE739E9C
:10B850002B05041D2F2D2C03C0C7002E18E22180BC
:10B860009F0000004FF4F452815000F5F450002185
:10B8700001717047F8B504AF83460EF0AFFB7B4C07
:10B8800006462568FDB97A494FF4004C41F6A86593
:10B8900001F5004051F80C20002A08BF0A4612F0BA
:10B8A000070318BFC3F108031D44801A854200F244
:10B8B000D7805019D51841F80C0041F6A8612846E8
:10B8C00016F0A5F9256030460EF0ACFB002341F6DA
:10B8D000A86040F20111834200F0B980EE181A18F6
:10B8E00006F1080353E8004F24B943E80014002C84
:10B8F000F8D103E0BFF32F8F1346ECE75D4870618A
:10B9000006F120005946FFF7ADFF584631460DF0CD
:10B91000C8FD4FF0FF384FF000094FF0010A0BF15E
:10B9200008000190CDF800B09BF80C005A4652492F
:10B930000DF0C8FE0DF022FEDDF804B006460D46FF
:10B94000DBF800402CB3D4E90001301A75EB01009C
:10B950001CD304F1080050E8001FCA050ED4CA0722
:10B960000CD041F4807140E80012002AF3D1206924
:10B97000791E029402AA0DF075FD01E0BFF32F8F2E
:10B98000A069CBF8000084F80A90D9E704F1180BFD
:10B99000D6E7BFF35F8FDDF800B05BE8006F4BE8E0
:10B9A00000900028F9D1BFF35F8F16B33546C6E982
:10B9B0000088F668287A85F809900028F5D069692A
:10B9C00028468847D5E9000181EA080180EA080095
:10B9D0000843EAD005F10A00D0E84F1FC0E842AFA3
:10B9E000002AF9D10029E0D101990868A8610D6009
:10B9F000DBE74FF0FF324FF0FF33DDF804C0DCF837
:10BA00000010D9B1D1E9004585EA080684EA0800AA
:10BA10003043161B73EB05064FF0000638BF0126B6
:10BA2000002E04BF2B46224628B98869CCF80000B6
:10BA300081F80A90E3E701F1180CE0E79BF80C00AD
:10BA40000DF056FE00283FF475AF20BF6CE70B48A1
:10BA50000DF080FB06F080F80DF04CFC0DF094FB2F
:10BA600007480DF083FB0DF08FFB00BF7400022030
:10BA7000D80E022029B40200C59403009A000000E9
:10BA8000EB000000F0B503AF2DE90007804691F808
:10BA900044000D46DFE800F003787B1F4E002A6962
:10BAA00005F12406A968D5E9009001EB0234C5E947
:10BAB000059030462021C5E9072416F004F8354AE0
:10BAC0003046012105F0C9FF0022C5E9129085F832
:10BAD0005820C5E9141405F148000BF09BF82E46D8
:10BAE000552116F8240F4FF000092B4A01EA5001A6
:10BAF000401A332101EA900100F03300084400EBC2
:10BB0000101000F00F0005284FF0000038BF012092
:10BB100085F848003046012156F810AC56F8044C20
:10BB200005F09BFF04F6FF7286F83890C6E90AA07C
:10BB3000C6E90C1205F14C000BF06CF895F82400E6
:10BB4000552195F8482001EA5001401A332101EAB5
:10BB5000900100F03300084400EB101000F00F01DA
:10BB600022B10020042988BF012002E0042902D963
:10BB700002200B2100E00621C0B2012285F84420FA
:10BB8000C8E9001015F05ABB01480DF0D2F9FEDEED
:10BB9000082D0400F82C0400182D0400F0B503AFA4
:10BBA0002DE9C007814691F8A9000C4620B1032871
:10BBB0003DD033480DF0BDF9D4E918364FF0010EF1
:10BBC00094F8AA504FF0000884F8A850F51A84F8A9
:10BBD00094E040F6FF7CD4F870A0D4E92802C4E9D0
:10BBE0001A3638BF45462E0B2905C4F8806004F18B
:10BBF000740181E8050418BF0EEB1536C4E92183F2
:10BC0000C4E9236C04F17C00FBF7B8FA002220B3EE
:10BC100004F1A800D4E91D3584F84420C4E92610B5
:10BC2000D4E91A02C4E90035C4E902022161684678
:10BC30002146FFF727FF00980C2811D0DDE90010FE
:10BC40000B2912D1D4F89C10C0B209788142D9D105
:10BC5000D4F898000121002208E00021002005E02E
:10BC60000220C9F80000032005E00122C9F80800FD
:10BC70000120C9E9002184F8A900BDE80C07F0BD46
:10BC8000282D0400F0B503AF2DE9C00B804691F8D4
:10BC900028000C469146DFE800F0035E61103A0090
:10BCA000002004F12C0684F8700094E82F00C4E909
:10BCB00008152FC604F114060DC604F12C056846BC
:10BCC0002946FFF7DFFE00980C2803D115F00FFA84
:10BCD00003203CE0DDE900060B282ED1F0B22E70E7
:10BCE000022828D104F14805012084F82D002021E4
:10BCF00015F095FA636A0020D4E9051284F844002F
:10BD0000042002EB0332C4E90C15C4E90E0204F16D
:10BD10003000494606F042FBC6B2042E03D115F0AE
:10BD2000E6F9042013E094F8440005F04BFB032EE1
:10BD300005D194F82D600B2003E0310A01E00021C9
:10BD40000420F2B242EA0121C8E90001012084F88E
:10BD5000280015F06EBB02480DF0EBF8FEDE00BFC8
:10BD6000382D0400F0B503AF2DE9000FCFB08146A8
:10BD700091F851008B469046DFE810F00600720102
:10BD80009F0127005A008100DBE9001C0020DBF83E
:10BD90004860DBE90C35DBF84C208BF850008BF861
:10BDA000BC00DBF84400CBF83800CBF83C60CBE9B2
:10BDB000021CCBE90435CBE91506CBE91735CBE9F5
:10BDC0001921CBF86CC0CBF840200DF1080A0BF11B
:10BDD0005401504601F0ECF80698042804D10A20DA
:10BDE00089F80000032098E001200BF1180C8BF873
:10BDF00050009AE87D0061467DC1DBF82820032AC7
:10BE000004BFDCF80000062804D0DBE906A3DBF859
:10BE10002C0044E00BF108030020DBE90E548BF802
:10BE200098000FCBCBE91554CBE91723CBE91901C7
:10BE30000BF1540508A84246294600F001FA08987B
:10BE40000C2804D10A2089F80000042065E0284667
:10BE5000DDE908A605F018FB0020BAF10B0F41D16F
:10BE60000BF138060BF108038BF8BC0070CE0FCB3A
:10BE7000CBE915450BF15C044CC4CBE91A010BF17D
:10BE8000540108A801F094F80C9A042A04D10A205D
:10BE900089F80000052040E0DDE908A30D980021A5
:10BEA000022A8BF8501005D0032A05D1180CC3EADA
:10BEB000004619E0082018E0DBF814109BB21AB90C
:10BEC0009942C0F0D78004208142C0F0CC801E1A75
:10BED000091A8E4200F2CA80834223D14FF0020A2F
:10BEE000002601E08BF85000092089F8000009F1D4
:10BEF0001000A9F8028089F80150C9E901A6C9F823
:10BF00000C404CA90CC90CC0EA220988018009F137
:10BF10001A000EA915F026FB01208BF851004FB036
:10BF200014F0D1BFDBF810100D182878062808D8B7
:10BF3000DFE800F03104043A224465004FF0030AC0
:10BF4000CEE7EF2861D1782E40F298802E46D5F8C2
:10BF500001A0D5F8055006F10D01D6F8094049A811
:10BF600015F072F906F117010EA8622215F0FAFA1F
:10BF7000AE46290A06200DE0012E00F08280052E33
:10BF800040F28980D5F80200002195F801E090FA8E
:10BF900080FA012057E0012E75D06878451E18BF41
:10BFA0000125002100204EE0022E6FD9B5F80100D6
:10BFB000002100BA4FEA1048022044E0022E67D95F
:10BFC000B5F801000DF1200800BA010C404613F04D
:10BFD000FFFE032E64D0042E66D0052E68D9EC78BF
:10BFE0004FF0000C95F804E095F805A049A8B8E8D2
:10BFF000060006C0B8F800100180032025E0B6F561
:10C00000807F06D84FF0010A6AE74FF0030A012645
:10C010006AE72E46D5F804A0B06806F11001EC6876
:10C020000A22B5F802806D78019049A815F09AFAB5
:10C0300006F11A010EA8E72215F094FADDF804E0E3
:10C0400004204FEA1E214FEA012C49AA4CAB42CAF8
:10C0500042C3118819805FFA8EF14CEA010644E769
:10C0600016480CF066FF204A0BF0FCFD1D4A3046D6
:10C070000BF0C2FF1D4A18460BF0BEFF104A792094
:10C080000BE0154A00E0164A15F09EF8134A00E04E
:10C090000F4A032001E00F4A062031460BF0ACFFA7
:10C0A0000A4A032015F0C4F8074A042015F0BAF82C
:10C0B000044A052005210BF0F4FDFEDE582D040096
:10C0C000C45C0400B45C0400A45C0400945C040040
:10C0D000845C0400745C0400645C0400545C040030
:10C0E000445C0400882D0400782D0400682D0400B1
:10C0F000F0B503AF2DE9C007804691F849000C4622
:10C100009146DFE800F0039598234C740020E66B1D
:10C1100084F8480084F8B5004848A067A06BD4E9CB
:10C1200000C2D4E90835216CA062C4E92A06606C1B
:10C13000E662C4E902C2C4E904352163C4F8B01060
:10C140006067C4E91B35C4E913C2606304F14C05A0
:10C1500068464A46294600F04DFB00980C2803D15A
:10C1600014F0C5FF03205EE0DDE90001C4E906012B
:10C17000012084F84800284605F0BAF9A06906288D
:10C1800049D104F108030020D4E90A6584F890003D
:10C190000FCBC4E91365C4E91523C4E9170104F101
:10C1A0004C0568464A46294600F04AF800980C2893
:10C1B00003D114F09CFF042035E02846DDE9006A35
:10C1C00005F062F90B2E28D104F1280504F1A80628
:10C1D00000202ECD84F8B5000EC604F108061748DD
:10C1E0004ECEC4E91B36C4E91D50C4E9131204F154
:10C1F0004C0568464A46294600F0FCFA00980C288F
:10C2000003D114F074FF05200DE02846DDE9006A33
:10C2100005F06EF901E0D4E9066A0020C8E9006A79
:10C2200084F84800012084F84900BDE80C07F0BDFF
:10C2300001480CF07EFEFEDEA82D0400982D0400BF
:10C24000F0B503AF2DE9F80F824691F844000C4693
:10C250009146DFE810F009004D0053002300B700BD
:10C26000E900060125014D01CDF804A0A246D4F84D
:10C2700000E04AF848EFAAF144065AE90E23D346F3
:10C280000AF1040062CE4AE9085600250BF8405F27
:10C290000EC04AE90CE24AE90A310FE0A346CDF8A4
:10C2A00004A01BF8880FABF1400ADFE800F003247C
:10C2B000273C5600D4E912E1D4E9142340F6FF7676
:10C2C0004FF0010CE66700269D1A84F880C038BF45
:10C2D0003546280BC4E918312905C4E916E2C4E93A
:10C2E0001A60C4E91C6218BF0CEB1530A06706E0A9
:10C2F00090480CF01EFE8E480CF01BFEFEDE04F192
:10C300006800FAF73BFF002840D004F158050020F0
:10C3100084F8D0002DCDC4F88410C4E92305C4E905
:10C320002523C4F89C1004F18C0102A8FFF7AAFB96
:10C330000298062803D00C28E1D1032058E004F12C
:10C340005805002084F8CC002ECDD4F88400C4E930
:10C350002315C4E92523C4F89C0004F18C0502A828
:10C360004A46294601F00EFB02980C283FD0284689
:10C37000DDE9028605F036F8B8F10B0FBFD00120D9
:10C38000B8F10C0F8BF8000005D133E001204FF01D
:10C390000B088BF80000504605F056F8DDF804A0B5
:10C3A000B8F10B0F40F0BC804FF4807004F118031B
:10C3B000A4F8F1000020C4F8B8000FCBC4E93A0398
:10C3C000C4E92A1204F1480102A8FFF7E7FB02982A
:10C3D000022803D115F04BF80420A4E0DDE9038620
:10C3E000C0070BD00120A663C4E90C0898E0042024
:10C3F0008BF8000015F043F8032094E00025A663B5
:10C400005FEAC870C4E90C5800F08880D4E90701DD
:10C410003246E66301F0A4FA84F88C5004F1180562
:10C4200020642ECD14F00FFE04F1480102A8FFF79E
:10C4300029FB02980C2803D115F019F8052072E0A9
:10C44000DDE90286B8F10B0F6AD1F0B2022865D09F
:10C4500004F11805002084F888002ECDE06B14F05C
:10C46000F2FD04F1480502A84A46294601F08AFA7D
:10C4700002980C2803D114F0FAFF062053E0284656
:10C48000DDE9028604F0AEFFB8F10B0F48D104F1EC
:10C490001805002084F870002ECDE06B14F0D3FD59
:10C4A00004F1480502A84A462946FFF7EBFB02982B
:10C4B0000C2803D114F0DBFF072034E02846DDE927
:10C4C000028604F0B8FFB8F10B0F29D104F1180669
:10C4D000002084F8C8006CCED4E90A01D4E90FCE5C
:10C4E000C4E9122604F15002A2E82B40C4F864C04B
:10C4F00004F1480502A84A46294600F01DF80298B2
:10C500000C2803D114F0B3FF08200CE02846DDE925
:10C51000028604F0D0FFB8F10B0F01D14FF00B08E9
:10C52000CAE90086012084F8440005B014F0CBBCB1
:10C53000482D0400B82D0400F0B503AF2DE9000F1D
:10C540008FB001900C4691F8800093460292DFE88C
:10C5500010F0070038003B00490098002200260137
:10C56000D4E90385E269D4E905A1281D05EB01336F
:10C5700000EB013600EB023003F6FC7394E8005246
:10C5800004F12802C4E91063C4E9089582E8005464
:10C59000C4E90D8119E094F82C0104F1840A04F532
:10C5A000967528B1032800F0B7808F480CF0C1FCC5
:10C5B000CDE9035AD4E9216BD4E923A5D4E9259820
:10C5C00094E08A480CF0B5FCFEDEE0630020D4E97C
:10C5D0000C1284F8A40004F14003206AC4E9231279
:10C5E000C4E9213008AD04F18401284601F092F835
:10C5F000DDF820C0BCF1020F00F0B58005F10C029F
:10C60000DDE9099805A992E861000B4661C35FEA7C
:10C61000CC70C4E9139840F0B08091E82C0004F18C
:10C6200054002CC00020B9F1000FA06400F0AB80D2
:10C63000204640F8609FA0F11002031D50F804CC82
:10C6400092E8620062C3C0F810C014F0E1FA4FF043
:10C6500000090429C0F0BC800068214641F8740F2D
:10C6600051E9052051E9153C51E9136581F87890AD
:10C67000C1E90120C1E90435C1E90620C1E9081C6E
:10C680008E6204F1840608A8314600F091FC0C98F3
:10C69000042864D0022873D0DDE90898032800F04C
:10C6A0009980DDE90A05D4E91E12514B0EF00AFB10
:10C6B00004F59872A4F83C8182E80302206F854259
:10C6C00084D1D4F83C800020D4E908B5D4E90A9A92
:10C6D000049604F5987684F82C0104F59670C4E964
:10C6E000216BC4E923A5C4E925980390304614F0D2
:10C6F0008FFA0022C4E927BA84F8E02006F1080284
:10C70000C4E9292004F1AC0080E82202DDF810A081
:10C71000DDE902B5C4F8B88004F19C0608A85A46C1
:10C72000314600F013FF08980C2820D03046DDE990
:10C73000089804F099FE0120B9F10C0F287018D068
:10C74000504604F070FEB9F10B0F43D1B4F83C1120
:10C75000E06B033121F003010844083035E714F0A1
:10C760008EFE04203AE014F08AFE032036E0032017
:10C77000287014F084FE052030E00120A06429E038
:10C780004FF0060923E004F1200584F8C400A06BF3
:10C790002ECDC4E92115C4E92323C4F8940004F183
:10C7A000840608A85A46314601F0ECF808980C288F
:10C7B00003D114F064FE062010E03046DDE908984D
:10C7C00004F010FEB9F10B0F04D14FF00B0901E09A
:10C7D0004FF004080198C0E90098012084F8800017
:10C7E0000FB014F070BB00BF6C2F0400C82D040004
:10C7F0000C650400F0B503AF2DE9000FB9B004904B
:10C80000884691F8690093460592DFE810F00E0023
:10C81000D100EB0015013D0148003B005D00E60240
:10C82000020321034503B701D30108F15C04D8E9F1
:10C83000000108F1200E08F130091CCC9EE8605080
:10C84000A9E81C0008F1080282E8635002466FF371
:10C850001F32002A069240F0AF800A466FF31F3263
:10C860000792002A40F0AE800A1A4FF00009B9EB97
:10C87000523F40F0B880DFF824075121DFF820272D
:10C880000BF0D9FB98F8200108F16C0A08F59074B8
:10C8900058B3032853D0DFF8EC060CF04AFB4446AB
:10C8A00014F8F80F002869D0032840F09380C2469E
:10C8B0001AF8F40F002800F07880032800F0B48103
:10C8C000DFF8C4060CF035FB444614F8940FA4F1CD
:10C8D000280ADFE810F005008300870002022F021B
:10C8E000D8E91CB5D8E91E69E6E1D8F87000A14680
:10C8F000D8E91DB6D8F884500190D8F87C00039090
:10C90000D8F88000029058463146D8F86C4014F0B0
:10C91000ADF9414641F8880F002001F10C0281F881
:10C920004C0001988C604C4682E80308DDF814B096
:10C930000398C86102988E808E61C1E9080508F1EC
:10C9400090052EA85A46294600F000FE2E980C2885
:10C9500006D10499032020700C2008600620B8E25C
:10C960002846DDE92EB904F07FFDBBF10B0F0CD199
:10C97000B8F88C900025D8F8886009E0D8F86C00E9
:10C98000D8E91FC3D8F88410DBE04FEA19455E46AA
:10C9900001202070504604F05FFDBBF10B0F01D168
:10C9A0000B2692E2C9EA05458FE2D8E92620D4E0B9
:10C9B000DFF8DC050CF0BDFA0020DFF8D825089080
:10C9C00006A804E00020DFF8D025089007A808A9F1
:10C9D00005F076F8DFF8B4050CF0ABFADFF8A00547
:10C9E0000CF0A7FAFEDE081AC8F83C904FF00005DC
:10C9F00038BF2846040B01212646020518BF01EB6B
:10CA00001036AE4206D0002021462A4600F09AFF9A
:10CA10000135F6E7B14500F0DC804FF48070D8E9CD
:10CA20000C23A8F815010020C8F8DC00D8E90201A1
:10CA3000C8E94323C8E9330108F16C0108A8FFF7EE
:10CA4000ADF80898022800F0CA80DDE90965C00742
:10CA500040F0D0800024C8F84850F007C8E91046DC
:10CA60007ED0D8E9026A2A465146C8F84C50D8E927
:10CA70000C9B304600F074FF88F8B040C8E91B9B5F
:10CA8000C8E91D6AC8F87C0008F16C0108A8FEF727
:10CA9000F9FF08980C2800F09E80DDE908650B2E50
:10CAA00040F01382E8B2022840F00E82D8F8142039
:10CAB000042AC0F0A580D8F810100420DFF8E43470
:10CAC000D8F84C40D8F808A0D8F838500EF0FAF84A
:10CAD000042940F0988029680160D8F814100329CF
