:020000022000DC
:10700000D06C03200171020073A102000FCC0200BA
:1070100073A1020073A1020073A10200000000002E
:1070200000000000000000000000000073A102004A
:1070300073A102000000000073A1020073A102000E
:1070400073A1020073A1020073A1020073A10200E8
:1070500073A1020073A1020011A8020073A1020033
:1070600073A1020073A1020073A1020073A10200C8
:1070700073A1020073A1020073A1020073A10200B8
:1070800073A10200EDA8020073A1020073A1020027
:1070900073A1020073A1020055B4020073A10200A3
:1070A00073A1020073A1020073A1020073A1020088
:1070B00073A1020073A102000000000000000000A4
:1070C00073A1020073A1020073A1020073A1020068
:1070D00073A1020073A1020073A1020073A1020058
:1070E00073A1020073A1020073A10200000000005E
:1070F0000000000073A102000000000073A1020064
:1071000003F038F80E480F490022814201D004C034
:10711000FBE70D480D490E4A814202D008CA08C05B
:10712000FAE70C484FF47001026842EA010202607B
:10713000BFF34F8FBFF36F8F02F0A4F800DE0000A3
:10714000740002202C8F0220000002207400022014
:1071500018DE020088ED00E0B0B502AF054603F08E
:10716000ADFC0446D5E90021A8680223012A2B6062
:1071700004BF496888472046BDE8B04003F0C2BC60
:10718000B0B502AF86B00D4610490968C9050CD1EB
:107190001149144601F0B1FF026862B9C0E9005418
:1071A00008680130086006B0B0BD05F0E6FA08498D
:1071B0000091084904E005F0E0FA08490091084907
:1071C00005F0BFFA684602F0D0F900BF04ED00E018
:1071D00038D50200B0D50200DCCD020014CE02008A
:1071E0001CCE0200F0B503AF2DE9C00B0D461168AF
:1071F000002900F0C3802988112906D1806814462F
:10720000FFF7AAFF00202060B5E0AE880468304692
:1072100003F0C8FEC00700F0B380288889465028D4
:1072200032D0512816D0522840F0A280304603F0C8
:10723000B9FEC00700F09C8008460D468DF800108E
:1072400003F0E6FE00284BD0CA6B694690479DF8D4
:1072500000508AE0A879022840F09B80A87B04F0C7
:1072600073F8C0B2002840F09D80574802F0FAFF42
:10727000A87B03F0B3FD03F0C1F84846BDE80C0B52
:10728000BDE8F04001F066BE287B04F05DF8C0B2B6
:10729000A0B1236805F11201E8882A8A5C8884423B
:1072A00015D19AB34C480C7802F0DCFF4B4802F041
:1072B000BFFF04F0010002F0CCFF05E04B4802F0F4
:1072C000D1FF287B03F08AFD03F098F850E09B88FB
:1072D00083424DD1082A1CD36CD10868496820E04C
:1072E000284604F03BF802283FD00646404888462E
:1072F00002F0B8FF3F4802F09BFFF00730D00120BA
:1073000002F0A7FF404603F05BFC2CE09B88834221
:107310002ED10020CDE90000684605F074FADDE9C1
:107320000001020A8DF8000042EA0162090A080C15
:10733000CDF801208DF807002948ADF8051002F0BE
:1073400091FF284802F074FF274802F071FF0024E3
:107350006D46082CB8D0285D02F07BFF0134F8E7B9
:10736000002002F076FF03F049F8284603F0C0FD44
:10737000484603F0BDFDBDE80C0BF0BD02F026F958
:107380000F4802F06FFF03F06FFB03F037F802F0D5
:1073900083FF012804D1484601F058FE0B4805E060
:1073A0000B4803E0484601F051FD064802F066FF35
:1073B00002F072FF074802F055FF05F0A7F9E4E775
:1073C0003D0000003C0000003F0000003B000000CA
:1073D00040000000540000000D0000000600000006
:1073E0000E00000004000000080000003E00000045
:1073F0002200000065000000F0B503AF2DE9E00FAA
:107400000E889146D0F800A00546102E0ED0002020
:107410001B2E2ED0262E2CD0364802F023FF3046CD
:1074200003F0FEFC02F0EAFF02F036FFC87B0C46D8
:10743000B1F804B003F0E8FED4F80B308046CDF884
:107440000730D4E904C1294BA2680024019200222C
:10745000B2F5116F09D09E1896F8690010B930780E
:10746000012812D101347432F2E75846142176DF34
:107470000120E1B2CAE90001A868FFF76DFE002013
:10748000C9F80000BDE80E0FF0BD0120C6E901C13A
:10749000307006F10C005821A6F802B005F0C1FAD0
:1074A00040F20110DDF80710A6F86800002086F809
:1074B00066001720A6F864001B2086F8710001986A
:1074C000C6F86A00584686F86780C6F86D1003F063
:1074D0008FFD0178012904D001214470017003203F
:1074E000C7E7034802F0CAFE02F0D6FE3C020220C3
:1074F0003200000039000000F0B503AF2DE9000FA5
:10750000F1B08246DFF8AC090E905CA8811C043013
:1075100002909AF8C4029A4E9A4C0391CDF83CA07E
:10752000CDF828A0C8B3032840F02B849AF8BA02FB
:10753000002877D09AF86001042800F0C683032859
:1075400040F0D0839AF8DC010AF5B47E0AF5EE79B2
:10755000002800F0CA83032840F029849AF8D90152
:1075600052460AF5C27A02F2D91B002800F0D283F3
:10757000032840F020840A9ECDF824E006F5DC754F
:1075800096F8B801002800F0C883032840F017845B
:107590000A98D0F8B44100F04BBDDFF8980EDAF845
:1075A000C09202F06BFE7849402081F8210084F8F7
:1075B000000303F083FADFF8801E4A79012A00F005
:1075C000E48301224A7103F09DFA70487049714DBD
:1075D0000068C0F3072045280ED901F108000E46C7
:1075E0005A215A2403F054F8C0B23146B0FA80F060
:1075F000C5F85045460900E0002608468B46122192
:1076000003F046F8C4B20BF104001221D84603F08F
:107610003FF8C0B24CB1B0FA80F149090E43022CD8
:1076200004D105E0DAF8A0528CE00126022803D14B
:10763000DFF8080E02F022FE08F10C000021012202
:1076400003F02AF8002E40F0A383C0B2002800F017
:107650009F834B4E0020C5F81005C5F8FC000120A3
:107660002860D5F8FC000028FBD0464C4FF0A04025
:107670003A90A6F502703B903AA9002001224FF003
:10768000FF33A046082806D00C580430C4F824253F
:10769000C4F82035F6E73C4A40206021C8F8800154
:1076A0001170C8F800004FF000413B4893463B4A38
:1076B00001604FF400013A4881643A49C1F804235B
:1076C00001228A600A6001680029FCD16020364AE4
:1076D0008BF80B004FF40030C8F800000420202184
:1076E000C2F82C034D46C2F83003C2F82803C2F892
:1076F000240310604FF40060C2F800010320C2F8B8
:10770000200371601021906071604FF00051506053
:1077100071604FF0805190667160506600208AF869
:10772000BA0241F61D40AAF8B80220482049CAE929
:10773000AC1020492048CAF8AC022048CAE9A891F8
:10774000CAF8A8023AAC00200021322905D06218FC
:1077500060500A3110815060F7E710A821463222AC
:1077600005F051F80AF52C7900200021052927D0D1
:1077700001EB81020131A05022441071F6E700BFF5
:107780000805005000E100E006E400E004010010FC
:1077900000120010080000400463004002000800CE
:1077A00004150140001001400C070050032B050494
:1077B0002E2F2D2C18E22180739E66E3C0C77EFE1B
:1077C0000D950DF1C00B6FCCDC46ACE86F004A2282
:1077D000DDF828A020788CF80000BAF8A802ADF8EF
:1077E0003001DAF8A4024B901DA83AA905F06BF914
:1077F0004FF000080AF13400CAE908883222CAF8BA
:10780000308010A904F0FFFFBBE87E000AF1680099
:107810007EC04A229BF800100170D9F80000CAF817
:10782000810099F804008AF88500DAF8B5020D9C09
:10783000CAF886009AF8B9028AF88A000AF58270B6
:10784000CAF800411DA905F03EF9BAF8AE02AAF83F
:107850005201DAF8AA028AF86081CAF84E010AF1E8
:1078600020010AF19000702205F073F8BAF84C017B
:107870000025AAF858010022DAF848010023DAF8B6
:107880004E11CAF85401BAF85201CAF80441012451
:1078900038910121ADF8E4008DF8E8503AA801F0E4
:1078A00097FA9DF8E86002218DF8E8503AA8012285
:1078B000002301F08DFAB44906229DF8E8004FF448
:1078C000B0638AF8356101F58831B04E00028AF85C
:1078D00026210422DFF8608B0AF58679CAF83D116B
:1078E00018218AF83421B346A94ACAE94A154FF04B
:1078F0001411CAF83021DFF8482BCAE9424008F1D8
:107900000700CAE947360AF231168AF83C41AAF85C
:107910002441AAF83A51CAF83651CAF81021CAE9E6
:107920004514BFF35F8FD0E84F1F002940F0FB8163
:10793000C0E8414F0029F6D1BFF35F8FDFF8041B89
:107940009AF83C01002818BF0AF23D1010DF04F03D
:107950001DFF40F0F881BAF82411BAF8280111F09F
:10796000010108BF032001259AF82621ADF8EC009B
:1079700000298DF8E85008BF2A468DF8EA203AAC75
:107980002020214603F04AFDBAF8200160B1BAF880
:1079900022010021CDF8EA002320CDF8EE108DF869
:1079A000E8503AA903F03AFD9AF82A0101280AD1D1
:1079B0009AF82B018DF8EA0001208DF8E8003AA929
:1079C000212003F02BFD9AF82C0101280AD19AF806
:1079D0002D018DF8EA0001208DF8E8003AA9222057
:1079E00003F01CFD9AF82E01012807D19AF82F0107
:1079F0008DF8E8003AA9012003F010FD9AF8300153
:107A0000012808D130798DF8EC0030683A903AA915
:107A1000402003F003FDDAF80801012807D199E8B6
:107A20000E0020460EC02146412003F0F7FC9AF8D4
:107A30003601012807D19AF837018DF8E8003AA9F4
:107A4000422003F0EBFC9AF83801012807D19AF89C
:107A500039018DF8E8003AA9432003F0DFFC9AF8D9
:107A60003A01012807D19AF83B018DF8E8003AA9BC
:107A7000A02003F0D3FCDAF81801012806D1DAF8C7
:107A80001C013A903AA9A12003F0C8FCDFF8B859CC
:107A90003A953AA860DF0446DFF8B0093A9E02F052
:107AA000E1FB06F1604003F0BBF902F0A7FC2046C1
:107AB00004F06CFE40F04B813A98A84208D2DFF8FF
:107AC000900902F0CFFB3A9803F0AAF902F096FC75
:107AD00030494FF480000860DAF82001C1074FF008
:107AE000170118BF010C404620F8081FCAF84401CE
:107AF00002208DF8E8003898CDF8E900BDF8E400E0
:107B0000ADF8ED003AA86CDF04F040FE40F02D81A6
:107B100002F0D4FFD8F818400646ECB9DFF8341963
:107B20004FF4004001F500450A58002A08BF0A46F4
:107B300012F0070318BFC3F1080303F15004AD1A94
:107B4000AC4200F22E8114440C50D418502120462F
:107B500005F00BF8C8F81840304602F0D3FF0020BB
:107B600040F20111502800F0E5802618503006F14F
:107B7000080252E8003F23B942E80013002BF8D175
:107B80000AE0BFF32F8FEDE70000010101000001C3
:107B90000101040400E100E0DFF8BC08706106F1B7
:107BA000200004F083FCDAF80401314602F0FDFC09
:107BB000DFF8A80803F00AFB0025ADF8B0018DF846
:107BC000B211A7F1320227F8325C6CA9012001261C
:107BD000A8DF04F0DBFD40F0CB804FF48070D94685
:107BE000CDF88A014FF00808B148A7F11D0ACDF879
:107BF0006AB1CDF8990183466590DFF864088DF885
:107C00006E618DF88E610226CDF88F518DF89351FB
:107C1000ADF880510325ADF86881CDF864A18DF8E9
:107C200098618DF87A5137F8324C03F0CFFA02465A
:107C30000B4659A85CA9CDE900016CA8214603F0C8
:107C4000BDFCBDF8B001002840F07B800120002180
:107C50008DF8AA018DF80401DFF808088DF8F250BC
:107C6000CDF8A691ADF8A481CDF8A0A1CDF805116D
:107C7000ADF80211ADF80911CDF811B18DF8106110
:107C80008DF80B61CDF80CB1ADF8F810DDF8B251FC
:107C9000DDF8B66103F09AFA02460B4668A83AA9E5
:107CA000CDE900016CA8214603F088FCBDF8B001C5
:107CB000002846D1DDF8B201DDF828A0C6EA004070
:107CC000CAF85C01AAF85A5181E09AF87801DFE815
:107CD00010F00600000500050F0026051406DAF86E
:107CE0007001FDE1DAF80041B9E5DAE95F0893E0F7
:107CF0000AF5C07004900AF5C47005909AF88801DE
:107D0000DFE810F005006100E7044E020E00049A5F
:107D10001068F7E1D2F8C0818EE0D6E9610272E125
:107D2000DAE982B06DE2DFF8E00DBFF32F8FBFF329
:107D30005F8FBFE3DFF8740E02F094FA01F0ECF904
:107D4000B4E36D9C15E00C46DFF8C00D24E00C4652
:107D500004291FD13A98A84226D9DFF8BC0D02F0B9
:107D600081FA3A9803F05CF8A0E3DFF8B00DA1E3E4
:107D70000C46DFF8340E02F075FA204601F0D2F915
:107D800094E3DFF87C0D02F0E1F9DFF8280E91E3CF
:107D900002F0AAFCDFF8780D02F064FA04F0D9FCD6
:107DA00084E3DFF80C0E85E3DFF8680D82E3DFF88B
:107DB0004C0D02F0CBF9DFF8400D02F0C7F9DFF807
:107DC000340D02F0C3F9DFF8280D02F0BFF940F2DC
:107DD00001110020CAF8EA114FF4C871CAF8E41181
:107DE00040F20121AAF868110AF5F078DAF8541186
:107DF0000AF5EE79CAF86A110AF5B47EBAF8581194
:107E00008AF8E801AAF8E0018AF8DC01DAF844010E
:107E1000AAF86E11CAE95F08CAE96F08714691E8CD
:107E20007C000AF5E2707CC0524600208AF8D90135
:107E30000AF5C27A02F2D91B012002F5E47C92F81D
:107E4000C45182F8D801D2F8D461B2F8C61192F8C0
:107E5000C54102F5EC729CE809100B92CDF824E0C4
:107E6000CDE90CB9DFE805F003281B1D0D003F9696
:107E70003CA9012581E8091000268DF80151002454
:107E800026E00725CDF8EB0000208DF801518DF894
:107E9000EF30ADF8E9103E90CDE93CC617E0022581
:107EA0000BE03CA90625002649C18DF801510FE0E1
:107EB0000000010160D4020003258DF8E940002490
:107EC0008DF801513B90ADF8EA103E943C940126A8
:107ED0000DF5B87B4FF0000918218DF80241584686
:107EE0008DF800918DF8E86004F09BFD0BF1010026
:107EF000002101228DF87051CDE90099012503F090
:107F00009BF83AA8002E18BF461C98F80A008DF876
:107F1000850198F80B005D968DF88601D8F804006D
:107F20005E9098F80C008DF88401B8F802000128E2
:107F300098BF2846B8F80010002908BF0846ADF8D9
:107F40007C0198F80900012888BF054698F80800C8
:107F5000002808BF05460BF11700002104228DF808
:107F60007E51CDE9004903F067F8DDE93C0103F0FB
:107F70008BF904460D46DDE93E0103F085F9ADF8C5
:107F8000B4515A46DFF8985B6E90ADF8BC116C9412
:107F90006CA9284672DF02F05FFFC0070C46DFF8CD
:107FA000840B15D198F90D200120297877DF02F094
:107FB00053FFC0070C46DFF8700B09D12878012168
:107FC00073DF02F049FFC0070C46DFF8600B0CD0EE
:107FD00002F048F904F0BDFB02F010FA0B9800F033
:107FE0004BFF0225DDE90CB943E00A9E00200B9A05
:107FF00006F5DC75DDE90CB986F8B801DFF8040B8D
:108000005430C6E96102002106F5C874C6E963214F
:1080100006F5C67106F5CE72C6E96B40C6E9692160
:1080200006F5D271DFF8082BFFF7AAF8C6F8B441BD
:108030000EA9204601F084F8002840F0E9810A9E4C
:1080400006F5D870D6E9675400F054FF06F5C870FD
:1080500000F078FF0120042D86F8B80100F0DA81E5
:10806000504600F02CFF00208DF8E8003AA800F000
:1080700003FF01268BF800609AF85500032806D10B
:10808000504600F01CFF0AF1540000F0F5FE032DED
:1080900089F8006055D1DDF828A020468AF86141B2
:1080A00003F05CF9DF4E022840F0F581099A0AF2EC
:1080B0006111CAF810220AF5AD720020CAF8301218
:1080C0008AF898028AF838028AF818028AF8780141
:1080D0000AF19000CAE99612CAE95A21CAF8700159
:1080E000CAF87401DFF8540A02F0C8F800200AF553
:1080F000C4718AF888010AF5C072DAF87401CAF806
:1081000080010591CAF884010168C9072BD0049247
:10811000D0E9025402F082FA421B71EB0402C0F073
:10812000BF81401BA141423871F100000498C0F0AA
:108130005481DAF884010021C0E90011DAF88401E1
:1081400012E0DFF8F00902F08DF8DFF8EC0902F038
:108150006FF8DDF828A0002D00F04E81012D40F0D1
:108160004F81012049E10492BF4D66300021012278
:1081700005290CD0435C3446202B03F01F0328BF95
:1081800005F1FC04013102FA03F32360F0E701205A
:108190000021002402F06EFCCAE964018AF89841CB
:1081A0000AF5C8700EA902F06FFC08B10320DAE0EE
:1081B000DFF88C0902F062F8DAF884110020589098
:1081C0000AF5C67B61313AAA00230024052B0FD0A3
:1081D000CD18052C80F04A8104EB4404013342F8A9
:1081E000345002EBC4042075589C01345894EDE7D8
:1081F0003AA958467C2204F066FCDAF80402CAE97F
:1082000082B000EB40000022C0004FF000085C4646
:1082100008900898404500F0A3800BEB080ECDF8BD
:1082200034E09EF81400D0B1032840F02881F446D1
:108230001CF8100FACF10C01D8B1032840F02381D9
:10824000F14619F80D0FA9F10506002800F080800D
:10825000032840F01C819EF80C50079129E05BF840
:108260000800F4464CF8040FCDF81CC00CF80C2F95
:1082700004E0201D0790086804F1100C764646F8CB
:10828000080F06F1050972600178774A202901F08C
:108290001F0102F53D72634B38BF03F5FC7252F8C3
:1082A0002130022565F3114342F8213005788EF81C
:1082B0000C502F2D0696CDF830C000F2B580DA466E
:1082C00002F0FCFB0B900021DFF8880800EBC506EC
:1082D00050F835B040F835107268BBF1000FDDE999
:1082E0000E1003D0824208BF8B4510D00968099256
:1082F000884704F053FA01D0D9688847494EBBF14A
:10830000000F07D0DBF80C100998884702E0C6F888
:1083100000B0444E0B9802F0F5FB534805F01F01E6
:10832000202D00F53D7038BF06F5FC7050F8210097
:1083300010F4403F1BD00C99032089F8000018343A
:1083400008F11808D346087000220D99087560E7F7
:1083500004F10802306804F10D090791164693E70D
:108360000420DDF828A0059908700320A6E00D9CE4
:1083700004F10C0002F064F90698012589F8005018
:1083800000F056FD0C980570079800F058FDDDF8D8
:1083900028A000212575DAF88401663005290DD062
:1083A000425C314B202A02F01F0203F5807305FA6C
:1083B00002F238BF331D1A600131EFE702F02EF9E7
:1083C000DAF8842100230124C2E902010AF5C6700B
:1083D000C2E9004300F043FD049801218AF88811A6
:1083E00000F066FDDAF874010AF5BE73002200F1B0
:1083F0006B01663007C36DE1002001F02AFF04E045
:10840000022001F026FF04F0A4F901F0F7FFDEE4FA
:1084100003202870DDF828A0032089F800008BF8DD
:10842000000080E208050050DFF8242728463021AC
:1084300000F058FF09000000CC8E02200F00000061
:108440000CCF0200B1B30200000002200A000000BD
:1084500024000000480E022011B80200E4DD0200F2
:10846000D4DD0200F4DD02000C07005000205C9512
:108470008DF884015CA800F0EBFC01F023FEDFF82E
:10848000CC0601F063FEDFF8C00601F05FFEDFF806
:10849000B40601F05BFECDE93A013AA801F0E1FD36
:1084A000DFF8000701F0DEFE02F0DEFA01F0A6FFC1
:1084B00001F0F2FE01F0E2FE01F0EEFE8AF8780132
:1084C0000AF516769AF89802012400F006010429AC
:1084D0006BD078B1032840F0EC809AF894020AF54A
:1084E00018780AF5257428B3032840F0EA80DAF8F2
:1084F00090523AE0DAF858020078142880F0F182BD
:1085000074214843DFF878160858C10744D0000C9E
:10851000DAF85C5202F038FE0021CAE998058AF8C0
:1085200094120AF29921CAF868120AF525740AF51C
:10853000187803E0DAE99805DAF86812CAE99B517D
:1085400000220AF29521CAF874220AF51B720AF574
:108550001D75CAE9A0210AF52071DFF82826CAE9AD
:10856000A250FEF70DFECAF890520EA9284600F060
:10857000E7FD18B103202070002414E00AF52370F1
:1085800000F03CFD0AF51D7000F0DCFC01208AF8CB
:108590009402404600F020FD012430468AF89842BB
:1085A00000F09FFC04208AF898029AF83802042808
:1085B00041D8DFE800F003828E113200DAF8300291
:1085C0000021CAF834024FF42030002502F052FA9C
:1085D000CAE990018AF848520AF510700EA902F013
:1085E00053FA002848D1DAF83402007802F0C4FCCB
:1085F00080B201281CD1AAF83C1288B2DFF88C1591
:10860000002575DFCAF8400240F26760002102F0E1
:1086100031FACAE992018AF850520AF512700EA98D
:1086200002F032FA50BBBAF83C02DFF8641575DF8D
:1086300005208AF8380224B39AF89812042902BF58
:1086400005218AF89812052802D0DFF8480531E79D
:1086500006208AF838029AF87801032804BF0AF540
:10866000C07000F025FC304600F03BFC9AF8610138
:1086700002F03EFCFFF7ABBB032000E004208AF8C9
:1086800038029AF81802DFE810F0060024002400EF
:1086900011000B001502DAF81002CAF814024DE1BD
:1086A0009AF8280288B9DAE9881AA8E1DAF81C42AF
:1086B00047E1DFF8C40401F049FDDFF8CC0401F024
:1086C00045FDDFF8B00401F041FDDFF8CC0401F016
:1086D0003DFDFEDE884200F00781411CCAF87C1196
:1086E000DAF88411CAF888110131CAF88411CAF87D
:1086F0008C0131460078C74A202800F01F0028BFAF
:1087000002F1FC01012202FA00F0002408600120BD
:10871000002102F0AFF9CAE964018AF898410AF52C
:10872000C8700EA902F0B0F908B10420C6E6DAF864
:1087300074014FF07D0B4FF0000961300D90B9F1DD
:10874000050F00F0BF800D98514610F809A0B14800
:1087500000F58270BAF1200F38BF06F10800D1F899
:108760008841D1F87461D0F80080052C80F0D18068
:1087700001F054FFA0FB0B0201FB0B21000B40EAB0
:10878000015130690A1A100428D00AF01F00012391
:1087900004EB840403FA00F010EA080506EB440039
:1087A00034444C4400EB4900838A94F8484018BF95
:1087B0000125A5420CD00A2B2FD24FF6FF7192B2A1
:1087C000594091424FF0FF3188BF591C818205E02A
:1087D00091B25A1E8B4238BF00228282DDF828A057
:1087E000DAF88801052880F09280DAF8741100EB3D
:1087F0008000BD4E0844484490F84800012809D143
:1088000001F00CFFDAF87421012313600023C2E9A0
:108810000130D16009F1010991E70A9A3161002123
:108820008182D2F88801052878D2D2F8741100EB41
:108830008000CC4C0844484490F8481081F0010175
:1088400080F84810D2F88861052E69D2D2F87411E8
:1088500006EB86000844484490F8485002F02EF990
:1088600080462068002840F036814FF0FF302060BD
:1088700094F87C0040B100202060404602F042F9AC
:10888000BA4801F0FBFCA9E7A16F300400EB092016
:10889000284401EB4101020C21448A758882D4E905
:1088A0001D010131B1F1200218BF0A46A2679042B2
:1088B00004BF012084F87C00201D02F085F803F03D
:1088C0004EFF8BE7DAF88C118848097800F5807044
:1088D000202901F01F0138BF301D012202FA01F1E9
:1088E0000160DAE95F01F5E604200021002402F0CE
:1088F000C1F8CAE960018AF888410AF5C0700EA97A
:1089000002F0C2F800283FF4F1AB0520D6E5984A02
:1089100001E0914A2046052100F0E4FC8F4AFAE785
:108920008F4A3046F7E78AF8600103208AF8BA02D6
:108930008AF8C40271B0BDE8000FF0BD894CCAF8D6
:108940001C4202F0BBF880462068002840F0C3803B
:108950004FF0FF300AF5077A206004F1140594F80F
:108960007C000021012805D104F10C0002F02CF854
:1089700094F87C10D4E91D02904201D1C90714D0AB
:10898000411C00EB4000B1F1200218BF0A46002153
:10899000626784F87C10295A2844807841EA0040B4
:1089A000C6B24FEA1029022E17D165680E9945B15B
:1089B000D4F808B00F98834504BF02268D4203D136
:1089C0000BE0D4F808B00F98096888470226C4E97C
:1089D000010115B169685846884703F0C0FE022EB0
:1089E00072D00A9A0020D2F81412A2F81E9282F8CD
:1089F0001D6282F8280282F81C02C2E9881A00204F
:108A0000CDE95C009AF8002032B1039A01208DF87C
:108A1000700109E00C0700508DF87001BAF80200EF
:108A2000ADF871010320029A5CAB18449AF801304A
:108A3000037048680078142853D27423DDF828A006
:108A400058434F4B1858C50717D05CAB0968D21A6A
:108A5000000C0988ADF8B0213D936CAA3C9200222D
:108A6000ADF8EC2001228DF8EA20ADF8E8103AA923
:108A7000AEDF03F08BFE12D00C46484801F0F2FB4B
:108A8000474801F0D5FB2DB1012001F0E2FB03F0D6
:108A900060FE02E0002001F0DCFB01F0AFFC0120F1
:108AA00000218AF82802002401F0E4FFCAE98801C5
:108AB0008AF828420AF508700EA901F0E5FF00289F
:108AC0003FF43CAF052002E0DDF828A003208AF83F
:108AD0001802042027E7244801F0C4FB02F05CFDE3
:108AE000E4E4264A03F032FE080500500C0700506B
:108AF00038D00200ACCE0200ACCD0200BCCD0200EA
:108B00009CD00200CC8E02204700000048000000EC
:108B10004B000000490000004A0000004100000036
:108B2000700002201E0000001F0000002000000056
:108B300098CE020059000000620000000C00000006
:108B40000B0000000CCD02001CCD02002CCD020059
:108B5000F4D40200B800022048D0020058D002002D
:108B600068D002004C8E02204D000000550000002D
:108B700078D0020040CE0200CCCD02003CD70200EB
:108B80003C0202202CCE0200CCCE0200F4CE020029
:108B9000E4CE020052000000FCCC020056000000AF
:108BA0006400000029000000580000005700000089
:108BB00053000000280000000022C0F8A01280F836
:108BC000A4227047F8B504AF834601F077FF7A4CD2
:108BD00006462568F5B979494FF4004C01F5004087
:108BE00051F80C20002A08BF0A4612F0070318BFEC
:108BF000C3F1080303F53275801A854200F2D6806E
:108C00005019D51841F80C004FF43271284603F082
:108C1000ACFF2560304601F075FF002040F20111E5
:108C2000B0F5327F00F0B9802E1800F5327006F1F1
:108C3000080252E8003F23B942E80013002BF8D1A4
:108C400002E0BFF32F8FEBE75D48706106F1200073
:108C50005946FFF7B1FF5846314601F0A6FC4FF0E8
:108C6000FF384FF000094FF0010A0BF108000190A6
:108C7000CDF800B09BF80C005A46524901F05EFD59
:108C800001F0CCFCDDF804B006460D46DBF80040F0
:108C90002CB3D4E90001301A75EB01001CD304F1A8
:108CA000080050E8001FCA050ED4CA070CD041F4D2
:108CB000807140E80012002AF3D12069791E0294E5
:108CC00002AA01F053FC01E0BFF32F8FA069CBF89B
:108CD000000084F80A90D9E704F1180BD6E7BFF337
:108CE0005F8FDDF800B05BE8006F4BE80090002874
:108CF000F9D1BFF35F8F16B33546C6E90088F66831
:108D0000287A85F809900028F5D0696928468847AF
:108D1000D5E9000181EA080180EA08000843EAD0A9
:108D200005F10A00D0E84F1FC0E842AF002AF9D190
:108D30000029E0D101990868A8610D60DBE74FF0D8
:108D4000FF324FF0FF33DDF804C0DCF80010D9B17A
:108D5000D1E9004585EA080684EA08003043161B7D
:108D600073EB05064FF0000638BF0126002E04BF46
:108D70002B46224628B98869CCF8000081F80A9071
:108D8000E3E701F1180CE0E79BF80C0001F0ECFCC4
:108D900000283FF475AF20BF6CE70B4801F062FA82
:108DA00000F0BAF901F02AFB01F076FA074801F069
:108DB00065FA01F071FA00BF74000220480E02202B
:108DC000F9740200CDA50200270000005300000046
:108DD000F0B503AF2DE9800F0678CDB298469146E5
:108DE000824600244FF0010BA54214D0082C14D069
:108DF00048464146224603F0FEFDC007E0B20BFAAA
:108E000000F046EA000108BF26EA00018AF80010D7
:108E100001340E46E8E703F0C8BC024A01200121F4
:108E200000F060FA40D60200FEF7DCB9FEF7E4BAC3
:108E30004179032904BF043001F002BC7047017B73
:108E4000032904BF0430FFF7F3BF704700F082B876
:108E5000017D032904BF0430FFF7F1BF7047B0B5AF
:108E600002AF856F04462DB12046FFF7F1FF013DAB
:108E70001834F8E7B0BDD4D4D0B502AF01780022E1
:108E8000027001290FD10848007874DF03F094FCC8
:108E900009D106480C4601F0E5F903F05AFCBDE89B
:108EA000D04001F0ABBAD0BD70000220210000001C
:108EB000017A042904BF0C30FFF7D1BF7047D0B549
:108EC00002AF044690F83400032818BFD0BD04F167
:108ED0002C0000F00FF804F10C00BDE8D04000F0C9
:108EE00031B890F84010032904BF083000F074B87E
:108EF0007047D4D4FEB506AF0146006800220A6070
:108F000058B10C490968C90509D10D4900F0F5F8B7
:108F10000022026008680130086006B080BD03F0DE
:108F20002CFC05490091054903F00BFC684600F054
:108F30001CFB00BF04ED00E038D50200B0D50200F4
:108F4000BCCE02000168012918BF7047D0E90110AA
:108F5000C9680847F0B503AF4DF8048D84B00446E6
:108F60001B4801F07FF902204FF0020801F036FFA4
:108F700001F044FA204601F0FFFF80B2012814D12D
:108F800000200D46002602F011F903F0EEFBCDE9BA
:108F9000026669468DF80080B0DF01F05DFF0138A0
:108FA0000D46B0FA80F0460902E0012643F20205C0
:108FB000204601F09DFF36B1064801F053F903F059
:108FC000CBFB01F01BFA04B05DF8048BF0BD00BFD1
:108FD0001C0000001D000000D0B502AF044690F850
:108FE0003400032818BFD0BD04F12C0000F006F8AF
:108FF00004F11400BDE8D040FFF7A4BFFEB506AFF2
:109000000146006800220A6058B10C490968C90588
:1090100009D10D4900F071F80022026008680130A2
:10902000086006B080BD03F0A8FB05490091054922
:1090300003F087FB684600F098FA00BF04ED00E0FB
:1090400038D50200B0D5020088CE0200F0B503AFDB
:109050004DF8048D84B004461A4801F003F901204C
:10906000012601F0BBFE01F0C9F9204601F084FFA2
:1090700080B2012815D100200D464FF0000802F003
:1090800095F803F072FBCDE9028869468DF800601F
:10909000B0DF01F0E1FE01380D46B0FA80F046097C
:1090A00001E043F20205204601F022FF36B10648F6
:1090B00001F0D8F803F050FB01F0A0F904B05DF81E
:1090C000048BF0BD1C0000001D000000F0B503AFD4
:1090D0004DF804BDD0E9004C0246806891E8680074
:1090E000012C68C206D1DCF80C105DF804BBBDE8A9
:1090F000F04008475DF804BBF0BD0246006828B99F
:109100004FF0FF31104602C01146704780B56F46E0
:10911000084600F044FED4D4014801F089B800BFED
:109120005E000000D0B502AF0446044801F080F8AC
:109130002046BDE8D04001F043BD00BF6300000001
:10914000F0B503AF2DE9F0070C46054601F0B6FC7B
:109150008046D5E9000AD5F8089000262E60B0B107
:10916000012823D1D4E90010814508BF8A4515D0D4
:10917000096888470126CDE90201019601A9284620
:10918000FFF7A4FFDAF80410484688470EE0D4E958
:10919000001009688847CDE9020101E0CDE902A984
:1091A00001262846019601A9FFF790FF404601F0ED
:1091B000A9FC304604B0BDE80007F0BDF0B503AF30
:1091C0002DE9F007044600680E4670B1D6E9059512
:1091D0000322D5F80CA025494846D04780B1012686
:1091E000304604B0BDE80007F0BDD6E905010C2209
:1091F000CB681D4904B0BDE80007BDE8F040184742
:10920000307F04F1040840070CD41C494846012271
:109210000126D0470028E3D1404649462A4603F0BC
:109220004FF919E0124948460222D047012600288A
:10923000D6D1104AA7F11900029069464046CDE9FF
:10924000009507F8196C03F03BF90028C8D10A49CA
:109250006846022200F0BDFD0028C1D108494846F9
:109260000122D0470646BBE7CFCF0200DBCF02008A
:1092700096D102006CD1020094D1020084D8020081
:1092800085D8020080B56F4600F000F8F8B504AF4D
:109290006C46204601F024F92046FFF793FC80B588
:1092A0006F468CB000900120019000204DF2942177
:1092B00006900220C0F202010390059008A80291D6
:1092C00001A9049049F22530C0F20200CDE909015C
:1092D0004DF2B8310B906846089002A8C0F2020126
:1092E00000F043F980B56F468CB0CDE90001002055
:1092F000069002204DF248110390059008A8C0F294
:109300000201049049F225300291C0F20200694640
:10931000CDE9090111460B9001A8089002A800F0C0
:1093200024F9D4D4F0B503AF2DE9000F8FB0026853
:1093300042F210708C464FF69C7182424DF29810AA
:10934000C0F202003ED341F2597E4EF2FF0BA7F16C
:10935000430A0026CDF2B71E4DF6F00841F27B49D4
:10936000C0F2F55BCDF810C0A2FB0E350AEB060C7F
:10937000043E5A454FEA553303FB08251A46ACB262
:109380004FEA940404FB09F44FEA544404FB0155EA
:1093900030F81440ACF82340ADB230F81550ACF8BA
:1093A0002550E1D8DDF810C027361A46632A0CD8BC
:1093B00013460A2B1AD3B41E30F81300A7F1430149
:1093C000085319E02726632AF2D993B241F27B456C
:1093D0009B08023E6B435B0C03FB0121A7F1430298
:1093E00089B230F8111091530A2BE4D2741EA7F100
:1093F000430143F030000855DCF81C0001EB040B7E
:10940000DCF800204FF02B0A10F00108C4F1270609
:10941000C0F3800308BF4FF4881AB2B1DCF804909F
:1094200008EB0602CDE9026391451CD900072AD456
:109430009CF82000A9EB02095E46DFE800F0640218
:109440005E0248464FF000095DE0DCE90545524602
:109450002946204600F099F800286FD1EB68204695
:10946000594632460DE0DCE905455246039B294644
:10947000204600F08AF8002860D1EB682046029A66
:10948000594698475BE0DCF818503020039B524661
:10949000CDF804B0DCE9046B9CF82010CCF8100087
:1094A0000120009129468CF820005846CDF810C0C4
:1094B00000F06BF801460120002940D104EB0900BF
:1094C000B246A0EB0800029EA0F12604013C06D0A3
:1094D0002A695846302190470028F7D02EE0EB68E3
:1094E000584601993246984740BB0498009980F845
:1094F0002010C0F810A0002021E009F101014FEA7E
:1095000059004FEA5109DCE904B8441CDCF8185052
:10951000013C06D02A694046594690470028F7D0BA
:109520000CE0039B40462946524600F02EF828B92D
:10953000EB684046029A3146984720B101200FB0AF
:10954000BDE8000FF0BD0026B14508D02A694046AD
:109550005946904701360028F6D0711E00E0494672
:109560000020494538BF0120E9E780B56F4688B043
:1095700090E87441EC466346012083E87441ADF8FD
:109580001C006046069101F0BBFFF0B503AF4DF83B
:1095900004BD1C460D46B2F5881F0AD02B69114642
:1095A000064698470146304619B101205DF804BBD4
:1095B000F0BD3CB1EB68214600225DF804BBBDE87C
:1095C000F040184700205DF804BBF0BD80B56F4641
:1095D00088B00020012104900390042002902820EC
:1095E000019106A907904CF6506000914CF6786105
:1095F000C0F20200C0F2020106906846FFF7B5FF14
:10960000F0B503AF2DE9000F87B0D1F800C08B682B
:10961000D0E90082BCF1000F08BF5FEAC3700BD035
:10962000D80739D0CE6808EB020E8A464FF0000901
:10963000DEB1002543460BE0D1E90501BCE2F0288C
:109640002CBF231DE31C181B01358144AE420DD0F5
:10965000734526D01C4613F9010BB0F1FF3FF2DC35
:10966000C0B2E028EBD2A31CEDE743467345514658
:1096700012D093F90000B0F1FF3FDCBFC0B2E02888
:10968000B9F1000F14D0914511D218F9090010F169
:10969000410F0DDC00200CE09146BCF1000F10D111
:1096A00087E291465146BCF1000F0AD181E2F1D127
:1096B000404600280CBF91468046BCF1000F00F0E8
:1096C00078824E68B9F1100F0BD2B9F1000F20D09B
:1096D00009F00300B9F1040F1ED24FF0000E00256F
:1096E00043E008F10300CDE9006120F00306CDF866
:1096F0000890B6EB080EA9EB0E0101F0030B01D1A7
:1097000000208DE0A8EB060010F1040F4ED90020D8
:109710006EE04FF0000E3CE209F00C05B246A8F1F5
:1097200004068C464FF0000E2B4616F9041F96F9DE
:10973000032011F1410FC8BF0EF1010E96F901107F
:1097400096F9024011F1410FC8BF0EF1010E14F15C
:10975000410FC8BF0EF1010E12F1410FC8BF0EF14B
:10976000010E043BE1D161465646002800F011820B
:1097700018F9052012F1410FC8BF0EF1010E0128A2
:1097800000F0078208EB050393F9012012F1410F65
:10979000C8BF0EF1010E022800F0FB8193F9020010
:1097A00010F1410FC8BF0EF1010EF2E108F1010AFC
:1097B00000206FF003020AEB0203043293F9034026
:1097C00093F9065093F905C014F1410F93F9043051
:1097D000C8BF013013F1410FC8BF01301CF1410F68
:1097E000C8BF013015F1410FC8BF0130131DE2D1D0
:1097F00098F9002012F1410FC8BF0130BEF1010FEE
:109800000ED098F9012012F1410FC8BF0130BEF10E
:10981000020F05D098F9022012F1410FC8BF0130A4
:109820004FEA91090024BBF1000FCDF80C801AD04B
:1098300021F00302324492F9005015F1410FC8BFE4
:109840000124BBF1010F0ED092F9015015F1410F27
:10985000C8BF0134BBF1020F05D092F9022012F10A
:10986000410FC8BF013404EB000E12E04FF0000CB2
:109870003FFA8CF13FFA9CF21144A9EB03090AEB81
:10988000830613F0030001EB01410EEB114E40F093
:109890004F81B9F1000F00F04881B9F1C00F4B467C
:1098A00028BFC023B246B9F1040FDFD36FF00F0019
:1098B000012100EB830005933028CDF818A001EBBF
:1098C0001011049103D24FF0000C5646ABE021F08A
:1098D000030B4FF0000C564696E81105BBF1040B44
:1098E00032696FEA0001B5694FEAD11141EA90107F
:1098F00020F0FE3000EB0C016FEA04004FEAD010BC
:10990000D6F83CC040EA941020F0FE34706921443F
:109910006FEA08044FEAD413B46B43EA981323F0B8
:10992000FE3319446FEA0A034FEAD31343EA9A134A
:1099300023F0FE3319446FEA02034FEAD31343EADC
:10994000921222F0FE32F36911446FEA00024FEAEC
:10995000D21242EA901020F0FE30326A08446FEAD8
:1099600005014FEAD11141EA9511756A21F0FE31E6
:1099700008446FEA03014FEAD11141EA9311B36A37
:1099800021F0FE3108446FEA02014FEAD11141EAA9
:109990009211F26A21F0FE3108446FEA05014FEAA4
:1099A000D11141EA9511356B21F0FE3108446FEA7F
:1099B00003014FEAD11141EA9311736B21F0FE319B
:1099C00006F1400608446FEA02014FEAD11141EA6C
:1099D000921121F0FE3108446FEA05014FEAD111DE
:1099E00041EA951121F0FE3108446FEA03014FEA84
:1099F000D11141EA931121F0FE3108446FEA0401CC
:109A00004FEAD11141EA941121F0FE3108446FEA86
:109A10000C014FEAD11141EA9C1121F0FE3101EB1A
:109A2000000C7FF459AF0498DDE9053A10F0030803
:109A30003FF41EAFD6E90012B8F1010FD6E90204D7
:109A40006FEA01054FEAD51545EA91116FEA020563
:109A500021F0FE314FEAD51545EA9212614422F019
:109A6000FE3211446FEA00024FEAD21242EA90122B
:109A700022F0FE3211446FEA04024FEAD21242EAA7
:109A8000941222F0FE3202EB010C3FF4F1AED6E963
:109A90000412B8F1020FD6E906046FEA01054FEA95
:109AA000D51545EA91116FEA020521F0FE314FEA22
:109AB000D51545EA9212614422F0FE3211446FEA54
:109AC00000024FEAD21242EA901222F0FE32114412
:109AD0006FEA04024FEAD21242EA941222F0FE32F6
:109AE00002EB010C3FF4C4AE06F1200527CDCE43B6
:109AF000F60946EA9111C44321F0FE31E40944EA33
:109B0000901020F0FE3060440844D143C90941EA76
:109B1000921121F0FE310844E943C90941EA951147
:109B200021F0FE3101EB000CA2E6DDE902982EE007
:109B300003F0FC06DDE9029801285AF826106FEAC6
:109B400001024FEAD21242EA911121F0FE3515D0FE
:109B50000AEB8606022871686FEA01024FEAD21208
:109B600042EA911121F0FE310D4407D0B068C143A3
:109B7000C90941EA901020F0FE3005443FFA85F013
:109B80003FFA95F1084400EB00400EEB104EDDE982
:109B9000006176450DD991F82020CB46A6EB0E0941
:109BA0000020DFE802F01702111748464FF00009C5
:109BB00010E0D1E905014A46CB68414607B0BDE84F
:109BC000000FBDE8F040184709F101024FEA5900C3
:109BD0004FEA5209D1E904A4461C8D69013E06D022
:109BE0002A692046514690470028F7D005E0EB68E7
:109BF000204641465A46984708B1012010E0002609
:109C0000B14508D02A6920465146904701360028C0
:109C1000F6D0711E00E049460020494538BF0120BA
:109C200007B0BDE8000FF0BDD0E90002D2681047D0
:109C3000F0B503AF2DE9000F8DB0032316698DF841
:109C40003030202308930023002ECDE90A13099019
:109C5000069304935DD05069002800F08080D2F80C
:109C600000A04101D2F808B0013820F078404FF050
:109C700000084FF0000901300292039101900AEBB5
:109C800009014A6832B1DDE909030968DB689847D0
:109C9000002874D106EB0800036906EB8900D0E9BF
:109CA0000221057F846908938DF830500B9442B1EE
:109CB000012A03D10BEBC1014A680AB1002201E07D
:109CC0000968012256F80830CDE90421022B06D09C
:109CD0004168012B06D10BEBC1014A680AB1002291
:109CE00001E0096801224369079106920BEBC30169
:109CF0005BF833004B6804A9984700283FD10398CC
:109D000008F1200809F108094045B8D1DDE901B2A0
:109D100027E0D06818B3C600013820F0604094688E
:109D2000D2F8009000F1010B0DF1100892460025C9
:109D300009EBC5014A682AB1DDE909030968DB6856
:109D40009847E0B904EBC50154F835004A6841462C
:109D50009047A0B90135083EEAD1524601E04FF0E4
:109D6000000B506883450CD21268DDE90901CB680D
:109D700052F83B1002EBCB025268984708B1012021
:109D800000E000200DB0BDE8000FF0BDD1E90502F4
:109D90004DF2AC01D368C0F202010E22184780B523
:109DA0006F468AB0014600200590012002904DF2D6
:109DB000CC02049007A8039049F68D50C0F202002F
:109DC000C0F202020890781E079001A80192FFF7E6
:109DD000CCFBF0B503AF2DE9000F87B093460268C6
:109DE00004924FF0000842684FF0000980684FF07D
:109DF000000A0590481C0090CBF100000290481E1C
:109E000003920691019013E00198005D0A38B0FAC0
:109E100080F04009039BA4EB0802059D0699DB68CE
:109E200028704144049898470028B04640F0E780E5
:109E30005FEACA7040F0E180D94500F2C68040F286
:109E4000001AC0F2011A02E0D94500F2BE8006985D
:109E5000ABEB090EBEF1070F484421D8CB4500F00B
:109E6000B380029900224944835C0A2B00F09C8055
:109E70008B185E1C00F0A880861875780A2D7DD09E
:109E80009D1C00F0A180B5780A2D79D0033300F035
:109E90009B80F3780A2B75D004328B18E4D193E0C1
:109EA000C11C21F0030CBCEB000119D08D1EA1F1E7
:109EB000030A4C1E0022835C0A2B71D0944212D0FC
:109EC00083185E780A2E5FD095420CD09E780A2EB9
:109ED0005CD0924507D0DB780A2B5BD00432EAE7EE
:109EE000AEF1080207E040F2001AAEF1080291421A
:109EF000C0F2011A18D8042303EB0C0656E90153EB
:109F000083F00A34AAEB0404234385F00A34AAEB55
:109F1000040425432B4023F07F33B3F1803F03D16A
:109F2000083108369142E9D971454DD0009B01EBCB
:109F30000902029E134402EB060CABEB0102A2EBFA
:109F4000090A0022AAF1010E9E1816F8014C0A2CEB
:109F500025D0964538D09C5C0A2C19D00CEB020415
:109F6000A51C31D075780A2D16D003342CD0B478C6
:109F70000A2C13D004329245E6D125E0013213E0D9
:109F8000023211E003320FE0013209E0023207E051
:109F9000013204E0033203E0023200E003320A44FB
:109FA00040F2001AC0F2011A02EB090101F10109A5
:109FB0005945BFF449AF805C0A287FF445AF4FF0A4
:109FC000000A4E464C4606E0D946D84515D04FF01B
:109FD000010A46465C460598007848B103984DF260
:109FE0008C11C0F202010422C3680498984730B96A
:109FF00044457FF409AF00200CE7002000E0012079
:10A0000007B0BDE8000FF0BDF0B503AF4DF8048D0B
:10A010008568D0E90046287878B14DF28C12F36853
:10A02000C0F2020288461146204604229847414663
:10A0300018B101205DF8048BF0BDA1F10A0032696E
:10A04000B0FA80F04009287020465DF8048BBDE826
:10A05000F04010470A464DF26C11C0F20201FFF7C2
:10A06000E7BD80B56F468EB04CF6A471C0F2020118
:10A0700000914CF69471C0F2020103912B21CDE9BD
:10A08000011000200890022005904DF25C1107900D
:10A090000AA8069049F62940C0F20200C0F2020167
:10A0A0000D9002A80C9049F20160C0F202000491E8
:10A0B0000B9068464CF684710A9004A8C0F2020125
:10A0C000FFF753FA80B56F468AB04CF610404CF655
:10A0D000EC61C0F20200C0F2020100901720019072
:10A0E0000020069001200390059008A8049049F2F2
:10A0F0000160C0F202000291099068464CF684416A
:10A10000089002A8C0F20201FFF72FFA80B56F464F
:10A1100088B000204CF6EC61049001200190C0F260
:10A120000201039006A8029049F20160C0F2020009
:10A13000009107904DF20C104DF24431C0F2020034
:10A140000690C0F202016846FFF70FFA80B56F462D
:10A1500086B0014600200122049001924DF2C822EF
:10A1600003900420C0F20202029068460092FFF7BA
:10A17000FCF9FEE77047D0E90002D2681047E0B56D
:10A1800002AF00208029019003D28DF80410012233
:10A1900035E0B1F5006F0BD20222084662F39F1042
:10A1A0008DF80500C02040EA91108DF8040026E0EB
:10A1B00002200A4660F39F12B1F5803F0DD28DF860
:10A1C0000620E02242EA113289098DF8042060F36A
:10A1D0009F118DF80510032211E08DF80720F02261
:10A1E00042EA91428DF804208A09090B60F39F121C
:10A1F0008DF80620042260F39F118DF8051001A848
:10A20000114600F01FF900208CBDD4D40A464968DD
:10A21000012918BF00290149FFF70ABDD0D2020069
:10A2200080B56F460846114600F00CF9002080BD4D
:10A23000E0B502AF27F8020CB81E022100F002F9C7
:10A240008CBDE0B502AF019001A8042100F0FAF83E
:10A250008CBDE0B502AF07F8010C781E012100F0BB
:10A26000F1F88CBDD0B502AF044600F0A1F820464D
:10A27000FFF7DEFFBDE8D040FFF77CBFD0B502AFEF
:10A28000044600F095F82046FFF7D2FFFFF772FF73
:10A29000BDE8D04000F0B2B880B56F4600F000F8DD
:10A2A00080B56F46FFF732FFF0B503AF4DF804BD40
:10A2B0000E4D04460F4E0E49E86A00F003000228D6
:10A2C00008BF0E460020C0070BD105F1180021463B
:10A2D0000122B0470028F8D0012805D1013401201F
:10A2E000F1E75DF804BBF0BDFEF7D9FF00000220E6
:10A2F000F9A202002DA30200BCB504AFA2B104690B
:10A30000C368BFF35F8F9C4202D9DD432C4406E053
:10A3100014B1C3F5806402E040F2FF34E41A1CB1CA
:10A32000009400F00EF8BCBD0020BCBDDCB504AF4D
:10A33000C3684FF48064BFF35F8F009400F001F8AE
:10A34000DCBDF0B503AF2DE9000BBD688846814642
:10A35000AA4238BF1546EC18B4F5806F0ED9D9F86B
:10A360000400C3F5806641461844324602F04BFAB9
:10A37000D9F8040008EB0601AA1B04E0D9F8040090
:10A3800041462A46184402F03EFABFF35F8F6FF34E
:10A390009F24C9F80C402846BDE8000BF0BDE0B58D
:10A3A00002AF07F8010C781EFFF77EFF8CBDD4D4F6
:10A3B000FEB506AF00F082FB0D490A786AB90122AA
:10A3C0000A704870887830B900208A708DF80000D3
:10A3D0006846FFF769FF06B080BD02F0CEF9054977
:10A3E0000091054902F0ADF96846FFF7BEF800BFDD
:10A3F000CC8E0220E8D3020050D40200B0B502AFE8
:10A400000F4CE07878B1072808D24FF0FF3101FAFD
:10A4100000F02179084300F07F0002E0793060F01D
:10A420007F00FFF7BCFF00200025FFF7B8FFA4F86E
:10A43000035025706078BDE8B04000F063BB00BFFA
:10A44000CC8E0220F0B503AF2DE9800FDFF88C90A1
:10A4500000EB010B04464FF0010899F8036099F8EE
:10A4600004A05C4538D0651C14F8010BF1B2072933
:10A470000BD378B1FFF793FF013689F80360F0B290
:10A480008628EED1FF202C4608E078B1FFF787FF41
:10A49000504612E006F1790060F07F00FFF77FFF81
:10A4A0004FF0000A0026A9F803A0DAE708FA01F045
:10A4B00040EA0A0089F80400824601362C46F1B2CF
:10A4C00089F803600729CCD101064FF007064FF049
:10A4D000000A2C46C5D0E1E702F067B9CC8E022015
:10A4E000D0B502AF044600F013F9C0071FBF00202B
:10A4F0004FF0FF32C4E90002A0601CBF2173D0BD41
:10A500000448FFF7AFFE00F0AFFAFFF777FFFFF761
:10A51000C3FE00BF2600000001460148704700BF8F
:10A5200060D40200E0B502AF00F1080151E8002F4D
:10A53000D30517D4D30715D042F4807241E8002325
:10A54000002BF3D10369791E0090002007F8010C5D
:10A550006A46184600F00AF817F8010C012800D1E5
:10A5600040BF8CBDBFF32F8F8CBD7047D0B502AFFD
:10A570000368BFF35F8F12681C46D360B3FA83F39E
:10A580005B090B7050E8003FA34206D1BFF35F8F19
:10A5900040E800241CB9012402E0BFF32F8F0024FF
:10A5A000002CBFF35F8FE7D0D0BDE0B502AF0861EC
:10A5B0006A460091002107F8011C791EFFF7D6FFBB
:10A5C00017F8010C012800D140BF8CBD80B56F4643
:10A5D00040BF80BDF0B503AF4DF804BD13680D4C0E
:10A5E000A34211D152680025D2E900341E1A74EB3F
:10A5F000010638BF0125002D1CBF18462146C2E9BF
:10A6000000015DF804BBF0BD0348FFF737FEFFF71C
:10A6100043FE00BF60D40200250000000648074A40
:10A62000006B126800F0010182EAC151420A11EB8D
:10A63000C05042F10001704738000220041501406B
:10A6400000780949202800F01F0001F540713CBF47
:10A6500040F20071C5F2000141EA8000016821F476
:10A6600040310160704700BF00070050D0B502AF15
:10A67000064C01700021417004F1240000F0ADF996
:10A6800004F11C00BDE8D04000F0A7B9CC8E022038
:10A690004FF0FF3200F000B8B0B502AF046802EA34
:10A6A000010304EA02059D4201D10120B0BD1C4016
:10A6B0009C4214D10B4B0124C3F804411C68E407ED
:10A6C000FCD061EA020101601868C007FCD00020DC
:10A6D000C3F804011868C007FCD00020B0BD0220F8
:10A6E000B0BD00BF00E4014080B56F4602F06EF8D7
:10A6F0000548064A016801F4E0611143016002F077
:10A7000065F802F066F8FCE70CED00E00400FA05DD
:10A71000D0B502AF00F0D2F9074991F83440022CCD
:10A720009CBF621C81F8342000F0ECF90020214627
:10A73000032C38BF0120D0BD38000220F0B503AF94
:10A740004DF804BD0D46C0B20649144601EB001693
:10A7500000F0B4F9C6E902545DF804BBBDE8F0406E
:10A7600000F0D0B938000220F0B503AF2DE9800F1A
:10A77000C4B2994615462601DFF88CA000F09EF978
:10A780004AF806500AEB04168046C6F80490FFF714
:10A7900045FF8346401B8A4671EB09001ED21BF120
:10A7A00003004AF10001421B184B71EB090138BF4D
:10A7B000284603EB840120F07F40C1F83C024FF4AF
:10A7C0008030A040B5EB0B0169EB0A02B1F5400106
:10A7D00072F1000134BF1860586008E00B494FF473
:10A7E0008030A04048604FF0FF30C6E9000040468E
:10A7F00000F088F90020BBEB05017AEB090138BFB6
:10A800000120BDE8080FF0BD38000220041301400C
:10A81000F0B503AF2DE9F80F2E4C00262E4D4FF06A
:10A820000108082E0CD055F8260030B108FA06F0C1
:10A83000C5F80802204600F0D0F801360834F0E7E9
:10A84000E86FC8B300212548E9670126264D00229C
:10A8500004904FF0A040039008292DD003A84FEAA0
:10A86000421901324458043104F5E068D4F820A5B7
:10A8700001920291D346BBF1000F18D09BFAABF0C6
:10A88000B0FA80F11F291FD858F8210020F4403079
:10A8900048F8210041EA0900302811D205EBC00038
:10A8A00006FA01F12BEA010B00F097F8E3E7C4F890
:10A8B00020A5DDE90121CFE705B0BDE8000FF0BD1F
:10A8C000084A3021FEF70EFD054A20202021FEF720
:10A8D00009FD00BF78000220006100400003005025
:10A8E000D4D40200E4D40200B8000220F0B503AFD3
:10A8F0002DE9800F1A4C2068012803D10020206028
:10A9000000F032F8A06C012803D10020A06400F010
:10A910002BF814484FF480394FF0FF3A002500F12E
:10A920000806032D1AD004F13C0050F82510012927
:10A9300011D1002109FA05F840F8251000F0BEF801
:10A94000C4F804828346D6E9001046E902AA884783
:10A95000584600F0D7F801351036E2E701F025BF80
:10A960000411014038000220F0B503AF4DF804BDDA
:10A9700000F0A4F81249864612484FF440044FF400
:10A98000803C0A6B01320A63530A14EBC25243F152
:10A9900000030024032C0BD0D1E90056AD1A76EB4E
:10A9A00003053CBF0CFA04F5056001341031F1E7F2
:10A9B00070465DF804BBBDE8F04000F0A3B800BFEE
:10A9C00038000220041301400146D0E90020002392
:10A9D0000B600AB1516808477047F0B503AF4DF8F6
:10A9E000048D054600F06AF8D5E90046804600204F
:10A9F00028604CB1A16830468847D5E90010C5E908
:10AA0000004609B1C968884740465DF8048BBDE837
:10AA1000F04000F077B8F0B503AF2DE90007144619
:10AA20008A46064600F04AF8D6E9005980460020DA
:10AA300030601DB1A14508BF55450DD0DAF80010B2
:10AA40002046884701F0AAFE01D0D968884725B181
:10AA5000E9684846884700E035604046BDE80007A1
:10AA6000BDE8F04000F04EB80148FFF7E1BB00BF81
:10AA700001000000B0B502AF0C460546FFF7CEFD61
:10AA8000401961410022B0BDB0B502AF0446007A62
:10AA90000D4658B1FFF7C2FD02460B46D4E900014E
:10AAA000121A73EB010203D30020B0BDD4E90001F8
:10AAB0002A46FFF78FFD01202072B0BDD0B502AF4E
:10AAC0000D498879BFF35F8F88B9EFF310820123B6
:10AAD00072B68B71094B1C68CC605C680C610849CC
:10AAE00019604FF0FF315960D10700D162B60028DC
:10AAF00018BF0120D0BD00BFCC8E022080E100E055
:10AB0000FC06FFFD80B56F4678B90849EFF3108069
:10AB1000002272B6064B8A71CA681A40054BC007FC
:10AB20001A600969596000D162B680BDCC8E0220DE
:10AB3000FC06FFFD00E100E0B0B502AF86B00446C0
:10AB400014480068C00517D12068F8B922464FF0B4
:10AB5000FF3052F8045F206035B1A06803692846D1
:10AB600098472068013000E000202060002D18BFC9
:10AB70000125284606B0B0BD01F0FFFD0649009151
:10AB8000064901F0DEFD6846FEF7EFFC0448FFF7DA
:10AB900006F900BF04ED00E038D50200B0D5020090
:10ABA000BCD6020080B56F46FFF788FF034901223B
:10ABB0000A70BDE88040FFF7A5BF00BF3802022041
:10ABC000D0B502AF04465348FFF732FB611C14298D
:10ABD00013D9A4F5005009281FD943F20100201A07
:10ABE000052823D9A4F54850052826D8DFE800F029
:10ABF000036955674581514886E04748DFE801F021
:10AC00000B8449573B73775B7F457D353F753351E7
:10AC100031677B837100704876E0DFE800F005441F
:10AC2000343C28565E40602A54486DE0DFE800F06E
:10AC300003533D4B2F69474866E0B4F5805F3CD035
:10AC400041F20100844244D041F20200844230D0FB
:10AC5000B4F54C5F15D0B4F5505F14BF2F483048A1
:10AC600052E04E4850E04F484EE051484CE03F48DB
:10AC70004AE0394848E0554846E02C4844E04B4813
:10AC800042E0284840E03B483EE04B483CE02D484D
:10AC90003AE0504838E0364836E0264834E030485C
:10ACA00032E03F4830E034482EE028482CE0484865
:10ACB0002AE0334828E0424826E0334824E01C4894
:10ACC00022E01D4820E020481EE027481CE03248D2
:10ACD0001AE02C4818E01E4816E0224814E01F48ED
:10ACE00012E02A4810E038480EE02F480CE03548C2
:10ACF0000AE00D4808E0274806E02E4804E02F4807
:10AD000002E00F4800E022480078BDE8D040FFF79D
:10AD1000A0BA00BF5F000000A0D802008CD80200DB
:10AD20008BD802008AD8020089D8020088D8020095
:10AD300087D8020086D8020085D8020084D8020095
:10AD400083D8020082D8020081D8020080D8020095
:10AD50007FD802007ED802007DD802007CD8020095
:10AD60007BD802007AD8020079D8020078D8020095
:10AD700077D8020076D8020075D8020074D8020095
:10AD800073D8020072D8020071D8020070D8020095
:10AD90006FD802006ED802006DD802006CD8020095
:10ADA000AFD80200AED80200ADD80200ACD8020085
:10ADB000ABD80200AAD80200A9D80200A8D8020085
:10ADC000A7D80200A6D80200A5D80200A4D8020085
:10ADD000A3D80200A2D80200A1D80200D0B502AFC9
:10ADE00004460448FFF724FA2046BDE8D040FFF7A8
:10ADF00030BA00BF08000000D0B502AF04460448D6
:10AE0000FFF716FA2046BDE8D040FFF711BA00BFA1
:10AE1000020000000148FFF70BBA00BF600000000D
:10AE2000D0B502AF04460448FFF702FA2046BDE859
:10AE3000D040FFF706BA00BF03000000D0B502AF54
:10AE400004460448FFF7F4F92068BDE8D040FFF756
:10AE5000F8B900BF030000000146132826D9A1F568
:10AE60000050092830D943F20100081A052837D9C3
:10AE7000A1F5485005282ED9B1F5805F1CBF41F2DD
:10AE80000100814200F0318041F20200814218BF8E
:10AE9000B1F54C5F29D0B1F5505F1CBF43F20140C2
:10AEA000814222D001204FF0FF3170470846DFE891
:10AEB00001F00A0A1C1C1C1C1C1C1C1C1C1C1C1C3D
:10AEC0001C1C1C1C1C1C7047DFE800F00F0F0F0F30
:10AED0000F0F0F0F0F0FDFE800F008080808080831
:10AEE000DFE800F003030303030301207047D4D419
:10AEF000D0B502AFC0B2132820D81B49742210FB72
:10AF0000021494F86900E0B1013884F86900000681
:10AF100004BF2078012800D0D0BD2068C10715D01B
:10AF200094F866100029F7D1000C132176DF01F0A8
:10AF30002DFC14D1012084F86600D0BD094A01F02F
:10AF400005FC0C48FFF79AF9FFF7A6F90748FFF749
:10AF500089F9FFF75FFFFFF751FAFFF79DF9044802
:10AF6000F0E700BF3CD702003C02022030000000A6
:10AF70002A0000002F000000C0B214283FBF742137
:10AF80004843074909583EBF01F00100090C7047CA
:10AF900080B56F46014A01F0D9FB00BF3CD70200E3
:10AFA0003C02022080B56F4600F022F8024600788D
:10AFB00001280CD1517813290AD80B4A742311FBAC
:10AFC000032212F8693FFF2B06D00133137080BDB6
:10AFD000044A084601F0BAFB0448FFF74FF9FFF7AF
:10AFE0005BF900BF3CD702003C02022031000000A8
:10AFF00080B213289EBF054901EB4000704780B521
:10B000006F46014A01F0A2FB4CD702004C0B022014
:10B01000C0B213289FBF0749742210FB0210D0E969
:10B02000030198BF704780B56F46014A01F08EFB5F
:10B030003CD702003C020220F0B503AF2DE9800F9F
:10B040000578D4B28A46834600264FF00108B44200
:10B0500018D00AEB06095FEAD90015D1D7E9020139
:10B06000324601F0C8FCC0075FFA89F008FA00F028
:10B0700045EA000108BF25EA00018BF800100136FF
:10B080000D46E4E701F091BB014A0121FEF72AF9E0
:10B0900040D60200F0B503AF2DE90007D5B2C6B225
:10B0A0008A4600244FF000084FF00009A54213D053
:10B0B0000AEB0401C80814D1C8B2013426FA00F022
:10B0C000C007F3D0621E0120002101F086FB49EA8F
:10B0D000010948EA0008E9E740464946BDE800079B
:10B0E000F0BD024A0121FEF7FDF800BF30D6020094
:10B0F000DFB506AF0446002041F2070102908DF84B
:10B100000C000322ADF809100321CDE9001002A8BC
:10B110000421FFF791FF9DF80C0020710298206038
:10B12000DFBD80B56F4600210422FFF7B3FF80BD6D
:10B1300080B56F4604210422FFF7ACFF80BDD4D454
:10B1400080B213289FBF00EB4000054901EB80004F
:10B15000704780B56F46014A01F0F8FACCD702007B
:10B16000740B022080B213289FBF00EB40000549FA
:10B1700001EB8000704780B56F46014A01F0E6FAA6
:10B18000DCD70200640C022080B213289FBF00EBC2
:10B190004000054901EB8000704780B56F46014AC9
:10B1A00001F0D4FA5CD80200540D0220F8B504AFC7
:10B1B0000021C0B2CDE90001781E012207F8011C70
:10B1C000FFF73AFF17F8010C04B080BDBCB504AF1F
:10B1D0000446002007F8090CA7F10901204662DFA8
:10B1E00001F0D4FA03D1A08917F8091CBCBD0548A9
:10B1F0000D46FFF737F801F0AFFAFFF7FFF8FFF75A
:10B200004BF800BF36000000D0B502AF0446C0B214
:10B2100001280DD0022804BF0020D0BD0548FFF74B
:10B2200021F82046FFF7DAFDFFF7E8F8FFF734F8DA
:10B230000120D0BD37000000F0B503AF4DF804BDCC
:10B2400084B0C6B20E48A7F11104002500210422E3
:10B25000805D0090204607F8115C0195FFF7ECFE39
:10B260000848042104220195805D00902046FFF7E4
:10B27000E3FE17F8110C04B05DF804BBF0BD00BF8D
:10B2800004DE02000BDE020020B14FF6FF72914295
:10B2900002D270470021704780B56F460248FEF722
:10B2A000EDFFFEF7F9FF00BF38000000017802292A
:10B2B00004BF0020704780B56F4600F003F800021D
:10B2C000013080BDF0B503AF2DE9F80F0646C07818
:10B2D000FFF7B2FF03903079FFF7AEFF8146307879
:10B2E00096F801B0002596F802A0A7F11D06154CAE
:10B2F0000021CDE900053046012207F81D5C4FF022
:10B300000108A047304601210222CDE90085A0476F
:10B31000304603210122CDE900B5A0473046042183
:10B320000122CDE900A5A04703985FFA89F1C0B2D8
:10B3300040EA012017F81D1C40EA014005B0BDE8B5
:10B34000000FF0BD39B002004FF0FF3151FA80F22A
:10B350000021062A38BFC1B20846704780B56F4643
:10B36000C0B2142814D2742148430C490858C107AC
:10B370000CD0000C002100220023B1DFFFF76CFD90
:10B38000C0074FF0020018BF012080BD002080BD23
:10B39000014A01F0DBF900BF3CD702003C02022069
:10B3A00080B56F4602210122FFF774FE80BDD4D420
:10B3B00080B56F460C46012808D0064641F20100D0
:10B3C0001546864207D195B9104800E01048FEF7AF
:10B3D00049FF204612E00F48FEF744FFDFF83880AF
:10B3E0003046C0472046C0472846C04708E00648C8
:10B3F000FEF738FF2046FFF713FD2846FFF710FD44
:10B40000FEF7FCFFFEF748FF440000004300000089
:10B41000420000004500000021AE0200B0B502AFBE
:10B420000A4A044669DF01F0B1F902D00D46042949
:10B4300000D1B0BD0648FEF715FF2046FFF7F0FC2F
:10B4400001F08AF9FEF7DAFFFEF726FF000002207E
:10B4500046000000D0B502AF054C04F13400FFF700
:10B46000BCFA04F12C00BDE8D040FFF7B6BA00BF2B
:10B47000CC8E0220F0B503AF4DF8048D8CB0D1E92D
:10B4800005650C22EC681949D0F800803046A047C9
:10B4900008BB0021D8F8180004910321144A009237
:10B4A00000F10C020191039106A902911149CDE925
:10B4B00009126A460B9100F1080108910E49CDE985
:10B4C000060130462946FEF7B3FB20B90B4930464A
:10B4D0000222A04720B101200CB05DF8048BF0BD22
:10B4E000304629464246FEF7A3FBF5E7F0D00200BE
:10B4F000D8D002002593020001960200FCD0020081
:10B5000080B56F468CB0044601F05EF913480178AF
:10B5100011BB0125057012480094FEF7A3FE1148E7
:10B52000FEF786FE104802906846019000200790C2
:10B530000E4804950390069509A805900C480A90BA
:10B5400001A80990781E03A9FEF760FE09480121B1
:10B55000FEF778FFFEF752FF00F00EF8440E0220CF
:10B560004C0000000500000090D80200ECCE020064
:10B5700077A10200E8D2020080B56F460348016857
:10B5800021F48021016000F003F800BF24ED00E009
:10B5900080B56F4601F01FF9D0B502AF0448054CE5
:10B5A000A0470548A04700202146BDE8D0400847F5
:10B5B0000700000031A202005D000000F0B503AFFB
:10B5C0002DE9000FA7B0BC681D46CDE90C1016464A
:10B5D00020680B90A01DFFF775FED7F80CB0ADF8F2
:10B5E0004000000C8DF842009BF80A30BBF80810B0
:10B5F000A088032B0A90DBE900028DF84650ADF8D5
:10B60000446009900F9318BF8A4200F2EE809BF8C5
:10B610002200002606909BF8210005909BF8200050
:10B6200007909BF81F0004909BF81E0003909BF866
:10B630001A00089100219BF81B909BF81C809BF836
:10B640001DA08DF86060CDE9000618AD6A4C0E9221
:10B6500028460122A047284601210122CDE9009673
:10B66000A047284602210122CDE90086A0472846AE
:10B6700003210122CDE900A6DDF820A0A047039810
:10B68000042101F055F80498052101F051F80798BC
:10B69000062101F04DF89DF860000021079001227D
:10B6A00005988DF86060CDE9000618AD2846A047E2
:10B6B0000698012101F03CF89DF860000F99069072
:10B6C0000E980329DDF824901990DBF80B00CDF8D3
:10B6D0006B009BF80F008DF86A10ADF868A0CDF8EC
:10B6E00060908DF86F0004D005F10A00FFF7DEFDD1
:10B6F0000646BBF810004FF0000800241296C00761
:10B7000010D0DBF812000124DBF81610C1EA004269
:10B7100047F8682C4FF6FF72C1F307419043084485
:10B7200047F8640C0BF1230027F86A4CFFF7BEFDC5
:10B73000054616900BF12800FFF7B8FD179017A9E2
:10B7400010F0010018BF481C15F001011E9016A84A
:10B7500018BF411C1D9112A816F0010118BF411C11
:10B76000A7F16A001C91002C18BF841C0F980E9939
:10B7700003381B9408BF0146ADF86A1008BF824623
:10B78000ADF868A008BF814606988DF8610007985B
:10B790008DF860000B9823900A98CDF86490ADF86E
:10B7A0008800CDF8848010A8209011A81F900C98D4
:10B7B000CDE9248818A91FAA80B224ABAADF00F023
:10B7C000E5FF04D00D9841600146012008E00D9A84
:10B7D000DDE92401C2F806101146C2F8020000207B
:10B7E000088027B0BDE8000FF0BD0248FEF746FD17
:10B7F000FEF752FD3A00000039B0020080B56F46F6
:10B800000248FEF73BFDFEF747FD00BF5200000077
:10B81000F0B503AF2DE9000FC3B0824690F84C009D
:10B82000E8B1032840F0BD859AF8480000285CD0B4
:10B830009AF84500011FB1FA81F14FEA511100F069
:10B840002D8500285AD0032840F0DE859AF8440060
:10B850000A91012856D1DFF8BC0BFEF777FC0120D6
:10B86000DAF820503FDFDFF8B88B012040DF0120FD
:10B870004DDF01204EDF01204FDF98F81400BFF3A9
:10B880005F8FE8B9FFF71AF9044698F8150078B900
:10B8900008F12400FFF7A1F898F81500012800F03E
:10B8A000A68540F20110A8F81600012088F81500BE
:10B8B0000120BFF35F8F88F814002046FFF722F9BC
:10B8C0000026544644F8246F204650DF2078C007F5
:10B8D00004D008F116000121FEF7C8FE08F1160099
:10B8E0008AF84860CAE90A5001E0DAE90A50002102
:10B8F000CAF83000CAE910518AF83C1000200A91B9
:10B900008AF84400DFF8180B5246DFF8201B2C3071
:10B91000FFF781F83EA90DF12C09481C08902CAEC8
:10B9200009F11208B01C059006F10C000490701C7F
:10B9300009F1080B0990881C079006F1100003908C
:10B940008020A7F17A0127F87A0C484661DF00F0E1
:10B950001DFF40F09684BDF82C10481E0F28EFD331
:10B96000A1F1100020282FD21628E9D8DFE810F026
:10B9700018005F028B01B4013E01C4021700EE0201
:10B980001700000221030F0317001A03C4007B01F4
:10B990001700DE0217007A00A00117007600CFE73B
:10B9A0009DF83B00FFF730FC0028DFF8740A494699
:10B9B0000CBF3C305430FFF7BFF80028C0D1BDF8B1
:10B9C0003000132176DFBBE7A1F13000202806D23A
:10B9D000BDF83000392927D1FFF7C4FBE5E2A1F11A
:10B9E00050002028ACD2BDF8305055291FD1DFF8C7
:10B9F000300A0489BDF83200A04238BF0446172C33
:10BA000098BF172428462146B5DF00F0D5FE12D195
:10BA1000DFF83C0A0E46FEF725FC3046FFF7D0F86B
:10BA2000FEF7ECFC2CAE8BE7FFF78AFBBDE2284665
:10BA3000FFF7AAFBB9E22846FFF7DAFA01780029F6
:10BA400000F09F8440782CAE142880F09784DFF8B3
:10BA5000FC1900F0ADFEA0F8644071E7DFF8C00902
:10BA60005430A2E200F069FEC0073FF469AFC8B2EB
:10BA70000D46142880F0828474214843DFF8CC19E5
:10BA80000858C10734D00021000CADF8B41032467C
:10BA90002C9190DF00F090FE2AD1DFF8CC090C4603
:10BAA000FEF7E0FB00F055FEFEF7A8FCBDF8B20083
:10BAB000BDF8B01080B208430DD0DFF8B009FEF732
:10BAC000D1FBBDF8B000FFF797F9BDF8B200FFF762
:10BAD00093F9FEF793FCBDF8B40048B1DFF8900984
:10BAE000FEF7C0FBBDF8B400FFF786F9FEF786FC51
:10BAF0002846FFF7FDF923E79DF834000021DFF821
:10BB000054490122A0479DF8340001210122A04799
:10BB10009DF8340002210122A0479DF83400032142
:10BB20000122A04700F009FEC0073FF409AFC8B2E8
:10BB300007F8511C132800F221847423DFF80C2924
:10BB400000FB03F15458E10700F0678210FB03206B
:10BB5000C168002900F0DC820069A7F15102436B43
:10BB600030469847BDF8B000002800F0D382049D0D
:10BB7000200C06900DF1F809BDF8B2C0DDF8B4E074
:10BB80004C462E984ECD4EC4298821804946CDF88A
:10BB9000F200CDF8EEE0ADF8ECC036AA78C978C274
:10BBA00009881180DDE93BCEBDF8F4002CAC36AD40
:10BBB0004ECD4EC42CAE2978324621704946ADF8A0
:10BBC0000001CDE93ECE069885DF00F0F5FD40F09E
:10BBD000E982DFF8A0080D46FEF744FB00F0BCFD4B
:10BBE000FEF70CFC01240DF12C0902E39DF8460040
:10BBF0000021DFF860480122A0479DF8460001219E
:10BC00000122A0479DF8460002210122A0479DF88D
:10BC1000340000210122A0479DF8340001210722B1
:10BC2000A04700F0AEFDC00700F0EE8108468DF899
:10BC3000D810FFF7EDF9002800F00982079C0246B2
:10BC4000D8F80000D8F8043020606360BDF83C00EC
:10BC50000C6B1146ADF8F80036AA3EAB3046A04753
:10BC60009DF8B040F6E1DDE90D12CDE92C12314628
:10BC7000BDF8300075DF00F09FFD7FF461AEDFF8A6
:10BC800010080C46FAE1BDF83000DDE90D45FFF77C
:10BC9000AFF90178002900F074834078142880F00F
:10BCA0006D83DFF8A81700F083FDC0E9014547E682
:10BCB000BDF830000D9CFFF79BF90178002900F0DA
:10BCC00060834078142880F05983DFF8801700F0F3
:10BCD0006FFD80F8714033E69DF834400021DFF8B5
:10BCE000745701222046A847204604210322A84772
:10BCF000204603210122A847204602210122A8470D
:10BD0000204601210122A847204607210122A847F9
:10BD100000F037FDC00700F07B81C8B28DF8EC1051
:10BD2000132800F22B83DFF82417742210FB02146F
:10BD300094F86700002800F0A981E168002900F06C
:10BD4000B3812069CDF818B0C346C846DDF8249009
:10BD5000036C3BAA4846984799F804008DF8DC002C
:10BD6000D9F80000C146D846DDF818B036909EE1FB
:10BD70009DF83500FFF714FB9DF835000021DFF832
:10BD8000D4460222A0479DF8350003210122A04796
:10BD90009DF8380000210822A0479DF839000021B5
:10BDA0000822A0479DF8340000287FF4C9AD9DF813
:10BDB0003500FFF7F5FA00063FF4C2AD00F0BDFC18
:10BDC000C0073FF4BDADC8B20DF1F8091328CDF896
:10BDD00018B08DF8D81000F2D182DFF870267423E5
:10BDE000D346CDF8088010FB0326D6F80CA0BAF194
:10BDF000000F00F0D4819DF839000121012234693F
:10BE0000FFF748F9000600F00C82039A0DF1B00824
:10BE1000D6F85F10A446F06DC2F8031041461060DA
:10BE200006F14C0090E83C003CC1644608E2BDF8D5
:10BE30003000FFF7DDF80178002900F0A282467893
:10BE40007420132E00F2B8827043DFF80016CDF88C
:10BE500018B0CDF808800858C10700F0B082050C72
:10BE6000C8462846D346FFF7C3F8044600780028A2
:10BE700000F0A782DFF8D405742116FB0106D6F87E
:10BE80000CA0BAF1000F12D02846D6F81090FFF798
:10BE900089F8C00700F0A482D9F8382050468DF800
:10BEA000B0102CA990479DF8B000FFF721F80021B1
:10BEB0002170BDF82C002C90112840F084829DF850
:10BEC0003400707028463170FFF73AF9DFF8D86512
:10BED0004146B0472846FFF745F94146B047284656
:10BEE000FFF752F94146B047DA46C1462CAEDDF8BD
:10BEF0000880DDF818B023E5BDF83000FFF778F8CA
:10BF00000178002900F03D824078132800F2368243
:10BF1000DFF83815742210FB0211C86800283FF4BE
:10BF20000FAD0969CA695946904709E5BDF8341053
:10BF3000ADF8B0103146BDF830008FDF00F03CFCAA
:10BF40007FF4FEAC0C46DFF8400597E0BDF83050BA
:10BF50002846FFF74DF80178002900F0128240785A
:10BF6000DFF8E814132800F2098200F021FCC4680D
:10BF7000002C5ED006699DF8340002284FD00128BD
:10BF800057D100F0DAFBC00753D020204CE09DF8D9
:10BF90003440012C06D0022C40F02782DFF88004C8
:10BFA0003C3002E0DFF8780448304946FEF7C4FD33
:10BFB000C6E49DF83400FFF7B4F89DF83400FFF7AD
:10BFC000B7F800F0BAFBC0073FF4BAACCDB28DF8B9
:10BFD000B010132D00F206829DF834402046FFF782
:10BFE000A0F806462046FFF7A3F80246F0B2022862
:10BFF00054D001284CD02CAE002840F0BD80100653
:10C0000040F0BA800022B8E000218DF8B0102AE09C
:10C01000DFF84C04FEF732F992E400207BE000F0F8
:10C020008CFBC00705D024203258204690472CAE08
:10C0300086E400210022284680DFFEF70DFF2CAEAB
:10C0400001287FF47DAC0C46DFF8100416E00024D4
:10C050008DF8B0409DF8D800FEF74AFF14F00101BA
:10C06000099818BF014600220023284686DF00F009
:10C07000A3FB7FF465AC0C46DFF8DC03FEF7F2F8B7
:10C0800000F067FBFEF7BAF9FFF75ABC00220FE099
:10C09000501E2CAEC0B204286ED26EE0D0B2012881
:10C0A00064D105222CAE68E036A8FFF721F8012202
:10C0B000089900239DF8DC00002A8DF8F82008710B
:10C0C0003698086004F14C00319004F13000CDE95D
:10C0D0003233CDE92F3004F11400CDE92D3333464E
:10C0E0002C9018BF0A46284600217FDF00F064FB31
:10C0F00008D1DFF870030C46FEF7B4F800F029FB16
:10C10000FEF77CF99DF8EC00FEF7F2FEFFF718BC95
:10C11000012000E002203B9000243C9DDFE800F07D
:10C12000690303687B0017F8510C132800F226817D
:10C13000C64900F03DFB90F86710002940F0678188
:10C140000468E1070ED0C16879B30069A7F1510214
:10C15000089D036C2846984728798DF8DC002868EC
:10C16000369025E0DDF8B650002442E00722022890
:10C1700008BF06222CAE00D00122B448742115FB62
:10C180000101C86881F8682018B109698B6A3146D5
:10C1900098479DF8B000FEF7ABFEFFF7D1BBDA463B
:10C1A0002CAE68E00DF12C0935E036A8FEF7A0FFB3
:10C1B000059A200C9DF8DC10ADF8B000117136998D
:10C1C0001160DDE92C010A0C8DF8B420020C42EA62
:10C1D00001412C9180B231467EDF00F0EDFA1AD198
:10C1E000A6480D46FEF73EF800F0B6FAFEF706F94F
:10C1F0000124A348FEF736F8A248FEF719F82CB13F
:10C200000120FEF726F800F0A7FA02E00020FEF772
:10C2100020F8FEF7F3F817F8510CFEF769FEFFF768
:10C220008FBB039A0DF1B008D6F86D10D6F86A00EE
:10C23000C2F8031010600020CDE92C00CDE92E00DB
:10C2400096F8670000284FF0300018BF1420079AB6
:10C250003318E46AD3E905011060588A51604A46F0
:10C26000ADF8F8005046CDF8008036A9A0479DF8FB
:10C27000D810DA4646460846FEF73AFE0DF12C097C
:10C2800035E60C4605291CBF43F20100844240F00C
:10C2900084800A9940F20330AAF844009AF83C904E
:10C2A000B9F1040F56D0B9F1000F0A9105D0B9F1D8
:10C2B000030F08D05F48FDF749FFDAF83000514618
:10C2C00041F8340F4960DFF858815246574908F168
:10C2D0003400FEF7A0FBDAF838600DF12C0B0020DB
:10C2E000CDF824A0012540F6F37A0B9058464BDF99
:10C2F00000F04CFA25D10B9C0B2C47D805FA04F022
:10C3000010EA0A0F16D00B2C0FD00A2C08D0092CDB
:10C31000ECD13068457008F11C00FEF75EFBE5E7E4
:10C3200030680121FEF7A2F9E0E730680021FEF74E
:10C330009DF9DBE7022C0CBF03200020FEF732FC46
:10C34000D4E70C4605292FD1DDF824A003200A9953
:10C350008AF83C00B9F1040081F0010118BF012006
:10C3600008431FBF03208AF84C008AF8480043B0F6
:10C370001CBFBDE8000FF0BDFFF740FA324A00F0E5
:10C38000E5F93048FDF77AFFFDF786FF2B48FDF70A
:10C3900069FF2046FEF744FD1EE00C2C06D1244820
:10C3A000F0E71E48FDF7D2FE234800E02448FDF7E1
:10C3B00059FF00F0CEF90FE0234A3046DFE7354859
:10C3C000E0E73548DEE73648FDF74CFF2CA8FEF7DE
:10C3D00035FD3448FEF732FDFEF710F8FDF75CFF3F
:10C3E0002E48CFE7184A2846C9E72848CFE7012159
:10C3F00000200C910B490B910F900E9004200A49DC
:10C400000D900BA8FDF7B1F80348FDF79FFE1A4801
:10C41000B8E700BF94D902001CD90200C4DD0200B5
:10C42000CC8E02204CDD020054DD020060D40200FC
:10C430004F000000A4D90200510000004E0000008F
:10C4400050000000340000003CD702003C020220F3
:10C450002300000095B002001A000000190000003F
:10C46000180000001700000010000000110000007C
:10C470001200000014000000330000001300000050
:10C480001B000000610000001600000035000000E5
:10C49000150000002B0000002C0000002D00000003
:10C4A0002E00000090D1020039AB0200002180F87C
:10C4B0002C10024908310160704700BFCC8E022069
:10C4C000F0B503AF4DF804BD00680E46451C142DB1
:10C4D00013D9A0F50051092920D943F20101411ACD
:10C4E000052924D9A0F54851052927D8DFE801F00E
:10C4F0000370596E46905D499CE053490724DFE87C
:10C5000005F00B9A4B5B3B7F846090468D353F82F4
:10C510003354316F8A957D007B498CE0DFE801F070
:10C520000547353F285D68436B2A604964E0DFE8D2
:10C5300001F0035D4151307B524970E0B0F5805FFE
:10C5400041D041F2010188424DD041F202018842BE
:10C5500034D0B0F54C5F15D0B0F5505F69D13C498F
:10C56000172468E0594962E05A4964E05C4959E09F
:10C570004A4930E0444922E0604947E037492DE02C
:10C5800056492EE03349182455E046492CE05649D7
:10C5900048E038490E244EE05A4911244BE0404906
:10C5A00048E0304928E03A4944E0494934E03E490E
:10C5B0001C2440E031491FE051491DE03C49122450
:10C5C00039E04B492EE03C49152434E0244913E07E
:10C5D00025491EE0284913242DE02F491B242AE079
:10C5E00039490B2427E03349222424E0244903E07D
:10C5F00028491A241FE0254914241CE02F4916E07D
:10C600003D49052417E0344900E03A49082412E086
:10C6100011491F240FE02B4904240CE031490D245B
:10C6200009E032490C2406E0114903E024490924B9
:10C6300001E006491624D368304622465DF804BB63
:10C64000BDE8F040184700BFB4D90200C8DC0200C2
:10C65000B1DC020099DC02007ADC02005FDC02003F
:10C660004BDC020037DC020018DC020002DC0200B6
:10C67000ECDB0200DEDB0200CBDB0200B7DB0200FA
:10C68000A3DB020096DB020084DB020070DB020009
:10C690005ADB020040DB020025DB020012DB020055
:10C6A000FCDA0200DADA0200BEDA0200AADA0200DC
:10C6B00098DA020076DA020061DA020058DA020043
:10C6C0004FDA020088D1020044DA02003BDA0200AD
:10C6D00084D1020034DA020004CF020029DA020019
:10C6E0001DDA020010DA020004DA0200F8D90200B2
:10C6F000ECD90200DCCE0200E7D90200FCCE020039
:10C70000D3D90200C2D90200BBD90200D0B502AF12
:10C710000448054CA0470548A04700202146BDE835
:10C72000D04008470700000031A202005C00000072
:10C73000CDE90006284601222047BDF83000FEF76B
:10C7400031BC049003900420029070471421FCF740
:10C75000C9BD2046FEF734BA2846FEF731BA206834
:10C76000013020604046FEF7CDB98DF806004FF449
:10C770008570ADF80400A8B2704701210020019136
:10C780007047BDF830502846FEF70CBC4DF808ED58
:10C79000FEF762FB00285DF808EB70470246D6E919
:10C7A0000030C6E90021002B7047BDE8080FF0BD3E
:10C7B000742210FB021070474DF808EDFEF74CFB99
:10C7C00001285DF808EB704772B67047BFF34F8FD2
:10C7D000704700BF704700DEFEDE930641BF02F0E7
:10C7E0001F0100FA01F100207047002A08BF7047BE
:10C7F00002F01F03524202F01F02994020FA02F297
:10C8000011439840704700F000B8F0B503AF2DE930
:10C810000007102A63D3434213F0030400EB040C17
:10C8200016D003460E46357803F8015B63450FD2F8
:10C83000757803F8015B63453EBFB57803F8015B8B
:10C84000634505D2F578043603F8015B6345EAD306
:10C85000A2EB040E01EB04092EF003080CEB080315
:10C860005FEA89713ED0B8F1010F54DB182129F03D
:10C87000030201EAC90A4FEAC90102F10805494267
:10C88000126801F0180655F8041C22FA0AF201FA9F
:10C8900006F422434CF8042B9C453CD22A6821FA2A
:10C8A0000AF102FA06F421434CF8041B9C453FBFF1
:10C8B000696822FA0AF201FA06F422433CBF4CF8F6
:10C8C000042B9C4527D2AA6821FA0AF1103502FAF6
:10C8D00006F421434CF8041B9C45D4D31BE00346CB
:10C8E000F2B933E0B8F1010F15DB4C4621684CF882
:10C8F000041B9C450FD261684CF8041B9C453EBF4D
:10C90000A1684CF8041B9C4505D2E16810344CF832
:10C91000041B9C45EAD309EB08010EF00302AAB1FF
:10C920001A440E7803F8016B93420FD24E7803F845
:10C93000016B93423EBF8E7803F8016B934205D2A0
:10C94000CE78043103F8016B9342EAD3BDE80007C7
:10C95000F0BD042A18D3B0B502AFA2F1040E012332
:10C9600003EB9E0313F0030414D00B46844653F8E4
:10C97000045B012C4CF8045B10D1604619467246EA
:10C98000BEF10C0F1CD230E00B46844660461946BF
:10C99000FFF73BBFBEF10C0F12D226E04B68022C12
:10C9A000436003D1083A0831083004E08B680C3A40
:10C9B00083600C310C3084460B46BEF10C0F14D34F
:10C9C00084460B461868103ACCF80000032A5868D1
:10C9D000CCF804009868CCF80800D86803F110037C
:10C9E000CCF80C000CF1100CECD8BDE8B04060465F
:10C9F0001946FFF70ABF930641BF02F01F0021FA54
:10CA000000F000217047002A08BF704702F01F03A2
:10CA1000524202F01F02D84001FA02F21043D940FC
:10CA2000704780B56F46042914D3A1F1040C01228C
:10CA300002EB9C0212F003030ED04FF0000E0246F0
:10CA400042F804EB012B0BD110466146BCF10C0FF0
:10CA500019D222E0024620E0BCF10C0F13D21CE0F8
:10CA6000022BC0F804E006D1083908300246BCF1B8
:10CA70000C0F08D211E000220C3982600C30024603
:10CA8000BCF10C0F09D3002302461039C2E9003370
:10CA9000C2E9023310320329F7D8002908BF80BD4C
:10CAA0005018002102F8011B82420BD202F8011B30
:10CAB00082423CBF02F8011B824203D202F8011BF2
:10CAC0008242EFD380BD042A18D3B0B502AFA2F1E1
:10CAD000040E012303EB9E0313F0030414D00B4652
